{
  "transactions": [
    {
      "hash": null,
      "transactionType": "CALL",
      "contractName": null,
      "contractAddress": "0x4b38341b1126f45614b26319787ca98aec1b6f57",
      "function": "deploy(bytes32,bytes)",
      "arguments": [
        "0x0a0324256237ec0d18fdaf04d2983e66ba4f25c38f20c30f19d515945017a0e9",
        "0x60a0604052348015600e575f5ffd5b50604051610755380380610755833981016040819052602b916068565b5f80546001600160a01b0319166001600160a01b03938416179055166080526094565b80516001600160a01b03811681146063575f5ffd5b919050565b5f5f604083850312156078575f5ffd5b607f83604e565b9150608b60208401604e565b90509250929050565b6080516106a96100ac5f395f61012201526106a95ff3fe608060405234801561000f575f5ffd5b5060043610610064575f3560e01c806387c445441161004d57806387c44544146100d1578063a6c3e6b91461011d578063d969fe0f146100d1575f5ffd5b806324c73dda146100685780636835f32c146100b1575b5f5ffd5b5f546100879073ffffffffffffffffffffffffffffffffffffffff1681565b60405173ffffffffffffffffffffffffffffffffffffffff90911681526020015b60405180910390f35b6100c46100bf36600461040f565b610144565b6040516100a891906104ff565b6100e46100df36600461040f565b61030f565b6040805173ffffffffffffffffffffffffffffffffffffffff9095168552602085019390935291830152151560608201526080016100a8565b6100877f000000000000000000000000000000000000000000000000000000000000000081565b60605f5f5f8480602001905181019061015d919061061c565b925092509250805f0361019c576040517f5112ab1000000000000000000000000000000000000000000000000000000000815260040160405180910390fd5b73ffffffffffffffffffffffffffffffffffffffff83166101e9576040517f0f58648f00000000000000000000000000000000000000000000000000000000815260040160405180910390fd5b60408051600180825281830190925290816020015b60408051606080820183525f8083526020830152918101919091528152602001906001900390816101fe579050506040805160608101825273ffffffffffffffffffffffffffffffffffffffff80871682525f602083015282519086166024820152604481018590529296509190820190606401604080517fffffffffffffffffffffffffffffffffffffffffffffffffffffffffffffffe08184030181529190526020810180517bffffffffffffffffffffffffffffffffffffffffffffffffffffffff167fa9059cbb000000000000000000000000000000000000000000000000000000001790529052845185905f906102fc576102fc610658565b6020026020010181905250505050919050565b5f5f5f5f5f61031d8661032d565b90969095505f9450849350915050565b5f5f5f83806020019051810190610344919061061c565b506040517f70a0823100000000000000000000000000000000000000000000000000000000815273ffffffffffffffffffffffffffffffffffffffff8083166004830152929450909250908316906370a0823190602401602060405180830381865afa1580156103b6573d5f5f3e3d5ffd5b505050506040513d601f19601f820116820180604052508101906103da9190610685565b949350505050565b7f4e487b71000000000000000000000000000000000000000000000000000000005f52604160045260245ffd5b5f6020828403121561041f575f5ffd5b813567ffffffffffffffff811115610435575f5ffd5b8201601f81018413610445575f5ffd5b803567ffffffffffffffff81111561045f5761045f6103e2565b6040517fffffffffffffffffffffffffffffffffffffffffffffffffffffffffffffffe0603f7fffffffffffffffffffffffffffffffffffffffffffffffffffffffffffffffe0601f8501160116810181811067ffffffffffffffff821117156104cb576104cb6103e2565b6040528181528282016020018610156104e2575f5ffd5b816020840160208301375f91810160200191909152949350505050565b5f602082016020835280845180835260408501915060408160051b8601019250602086015f5b828110156105e8577fffffffffffffffffffffffffffffffffffffffffffffffffffffffffffffffc0878603018452815173ffffffffffffffffffffffffffffffffffffffff815116865260208101516020870152604081015190506060604087015280518060608801528060208301608089015e5f6080828901015260807fffffffffffffffffffffffffffffffffffffffffffffffffffffffffffffffe0601f83011688010196505050602082019150602084019350600181019050610525565b50929695505050505050565b805173ffffffffffffffffffffffffffffffffffffffff81168114610617575f5ffd5b919050565b5f5f5f6060848603121561062e575f5ffd5b610637846105f4565b9250610645602085016105f4565b6040949094015192959394509192915050565b7f4e487b71000000000000000000000000000000000000000000000000000000005f52603260045260245ffd5b5f60208284031215610695575f5ffd5b505191905056fea164736f6c634300081c000a000000000000000000000000ce78ac97d73b0beab15df609235d9b0a34099704000000000000000000000000168910ea470113a07ec777769e76d9c8c80a402f"
      ],
      "transaction": {
        "from": "0x168910ea470113a07ec777769e76d9c8c80a402f",
        "to": "0x4b38341b1126f45614b26319787ca98aec1b6f57",
        "gas": "0x23011e",
        "value": "0x0",
        "input": "0xcdcb760a0a0324256237ec0d18fdaf04d2983e66ba4f25c38f20c30f19d515945017a0e90000000000000000000000000000000000000000000000000000000000000040000000000000000000000000000000000000000000000000000000000000079560a0604052348015600e575f5ffd5b50604051610755380380610755833981016040819052602b916068565b5f80546001600160a01b0319166001600160a01b03938416179055166080526094565b80516001600160a01b03811681146063575f5ffd5b919050565b5f5f604083850312156078575f5ffd5b607f83604e565b9150608b60208401604e565b90509250929050565b6080516106a96100ac5f395f61012201526106a95ff3fe608060405234801561000f575f5ffd5b5060043610610064575f3560e01c806387c445441161004d57806387c44544146100d1578063a6c3e6b91461011d578063d969fe0f146100d1575f5ffd5b806324c73dda146100685780636835f32c146100b1575b5f5ffd5b5f546100879073ffffffffffffffffffffffffffffffffffffffff1681565b60405173ffffffffffffffffffffffffffffffffffffffff90911681526020015b60405180910390f35b6100c46100bf36600461040f565b610144565b6040516100a891906104ff565b6100e46100df36600461040f565b61030f565b6040805173ffffffffffffffffffffffffffffffffffffffff9095168552602085019390935291830152151560608201526080016100a8565b6100877f000000000000000000000000000000000000000000000000000000000000000081565b60605f5f5f8480602001905181019061015d919061061c565b925092509250805f0361019c576040517f5112ab1000000000000000000000000000000000000000000000000000000000815260040160405180910390fd5b73ffffffffffffffffffffffffffffffffffffffff83166101e9576040517f0f58648f00000000000000000000000000000000000000000000000000000000815260040160405180910390fd5b60408051600180825281830190925290816020015b60408051606080820183525f8083526020830152918101919091528152602001906001900390816101fe579050506040805160608101825273ffffffffffffffffffffffffffffffffffffffff80871682525f602083015282519086166024820152604481018590529296509190820190606401604080517fffffffffffffffffffffffffffffffffffffffffffffffffffffffffffffffe08184030181529190526020810180517bffffffffffffffffffffffffffffffffffffffffffffffffffffffff167fa9059cbb000000000000000000000000000000000000000000000000000000001790529052845185905f906102fc576102fc610658565b6020026020010181905250505050919050565b5f5f5f5f5f61031d8661032d565b90969095505f9450849350915050565b5f5f5f83806020019051810190610344919061061c565b506040517f70a0823100000000000000000000000000000000000000000000000000000000815273ffffffffffffffffffffffffffffffffffffffff8083166004830152929450909250908316906370a0823190602401602060405180830381865afa1580156103b6573d5f5f3e3d5ffd5b505050506040513d601f19601f820116820180604052508101906103da9190610685565b949350505050565b7f4e487b71000000000000000000000000000000000000000000000000000000005f52604160045260245ffd5b5f6020828403121561041f575f5ffd5b813567ffffffffffffffff811115610435575f5ffd5b8201601f81018413610445575f5ffd5b803567ffffffffffffffff81111561045f5761045f6103e2565b6040517fffffffffffffffffffffffffffffffffffffffffffffffffffffffffffffffe0603f7fffffffffffffffffffffffffffffffffffffffffffffffffffffffffffffffe0601f8501160116810181811067ffffffffffffffff821117156104cb576104cb6103e2565b6040528181528282016020018610156104e2575f5ffd5b816020840160208301375f91810160200191909152949350505050565b5f602082016020835280845180835260408501915060408160051b8601019250602086015f5b828110156105e8577fffffffffffffffffffffffffffffffffffffffffffffffffffffffffffffffc0878603018452815173ffffffffffffffffffffffffffffffffffffffff815116865260208101516020870152604081015190506060604087015280518060608801528060208301608089015e5f6080828901015260807fffffffffffffffffffffffffffffffffffffffffffffffffffffffffffffffe0601f83011688010196505050602082019150602084019350600181019050610525565b50929695505050505050565b805173ffffffffffffffffffffffffffffffffffffffff81168114610617575f5ffd5b919050565b5f5f5f6060848603121561062e575f5ffd5b610637846105f4565b9250610645602085016105f4565b6040949094015192959394509192915050565b7f4e487b71000000000000000000000000000000000000000000000000000000005f52603260045260245ffd5b5f60208284031215610695575f5ffd5b505191905056fea164736f6c634300081c000a000000000000000000000000ce78ac97d73b0beab15df609235d9b0a34099704000000000000000000000000168910ea470113a07ec777769e76d9c8c80a402f0000000000000000000000",
        "nonce": "0x13",
        "chainId": "0xa4b1"
      },
      "additionalContracts": [
        {
          "transactionType": "CREATE2",
          "address": "0x65a65c1ed7a61c6a1113a07bd1cbc66a0f8a329f",
          "initCode": "0x67363d3d37363d34f03d5260086018f3"
        },
        {
          "transactionType": "CREATE",
          "address": "0x40f8bf4d0fd8dffce875be4ad6b42f2e5627340b",
          "initCode": "0x60a0604052348015600e575f5ffd5b50604051610755380380610755833981016040819052602b916068565b5f80546001600160a01b0319166001600160a01b03938416179055166080526094565b80516001600160a01b03811681146063575f5ffd5b919050565b5f5f604083850312156078575f5ffd5b607f83604e565b9150608b60208401604e565b90509250929050565b6080516106a96100ac5f395f61012201526106a95ff3fe608060405234801561000f575f5ffd5b5060043610610064575f3560e01c806387c445441161004d57806387c44544146100d1578063a6c3e6b91461011d578063d969fe0f146100d1575f5ffd5b806324c73dda146100685780636835f32c146100b1575b5f5ffd5b5f546100879073ffffffffffffffffffffffffffffffffffffffff1681565b60405173ffffffffffffffffffffffffffffffffffffffff90911681526020015b60405180910390f35b6100c46100bf36600461040f565b610144565b6040516100a891906104ff565b6100e46100df36600461040f565b61030f565b6040805173ffffffffffffffffffffffffffffffffffffffff9095168552602085019390935291830152151560608201526080016100a8565b6100877f000000000000000000000000000000000000000000000000000000000000000081565b60605f5f5f8480602001905181019061015d919061061c565b925092509250805f0361019c576040517f5112ab1000000000000000000000000000000000000000000000000000000000815260040160405180910390fd5b73ffffffffffffffffffffffffffffffffffffffff83166101e9576040517f0f58648f00000000000000000000000000000000000000000000000000000000815260040160405180910390fd5b60408051600180825281830190925290816020015b60408051606080820183525f8083526020830152918101919091528152602001906001900390816101fe579050506040805160608101825273ffffffffffffffffffffffffffffffffffffffff80871682525f602083015282519086166024820152604481018590529296509190820190606401604080517fffffffffffffffffffffffffffffffffffffffffffffffffffffffffffffffe08184030181529190526020810180517bffffffffffffffffffffffffffffffffffffffffffffffffffffffff167fa9059cbb000000000000000000000000000000000000000000000000000000001790529052845185905f906102fc576102fc610658565b6020026020010181905250505050919050565b5f5f5f5f5f61031d8661032d565b90969095505f9450849350915050565b5f5f5f83806020019051810190610344919061061c565b506040517f70a0823100000000000000000000000000000000000000000000000000000000815273ffffffffffffffffffffffffffffffffffffffff8083166004830152929450909250908316906370a0823190602401602060405180830381865afa1580156103b6573d5f5f3e3d5ffd5b505050506040513d601f19601f820116820180604052508101906103da9190610685565b949350505050565b7f4e487b71000000000000000000000000000000000000000000000000000000005f52604160045260245ffd5b5f6020828403121561041f575f5ffd5b813567ffffffffffffffff811115610435575f5ffd5b8201601f81018413610445575f5ffd5b803567ffffffffffffffff81111561045f5761045f6103e2565b6040517fffffffffffffffffffffffffffffffffffffffffffffffffffffffffffffffe0603f7fffffffffffffffffffffffffffffffffffffffffffffffffffffffffffffffe0601f8501160116810181811067ffffffffffffffff821117156104cb576104cb6103e2565b6040528181528282016020018610156104e2575f5ffd5b816020840160208301375f91810160200191909152949350505050565b5f602082016020835280845180835260408501915060408160051b8601019250602086015f5b828110156105e8577fffffffffffffffffffffffffffffffffffffffffffffffffffffffffffffffc0878603018452815173ffffffffffffffffffffffffffffffffffffffff815116865260208101516020870152604081015190506060604087015280518060608801528060208301608089015e5f6080828901015260807fffffffffffffffffffffffffffffffffffffffffffffffffffffffffffffffe0601f83011688010196505050602082019150602084019350600181019050610525565b50929695505050505050565b805173ffffffffffffffffffffffffffffffffffffffff81168114610617575f5ffd5b919050565b5f5f5f6060848603121561062e575f5ffd5b610637846105f4565b9250610645602085016105f4565b6040949094015192959394509192915050565b7f4e487b71000000000000000000000000000000000000000000000000000000005f52603260045260245ffd5b5f60208284031215610695575f5ffd5b505191905056fea164736f6c634300081c000a000000000000000000000000ce78ac97d73b0beab15df609235d9b0a34099704000000000000000000000000168910ea470113a07ec777769e76d9c8c80a402f"
        }
      ],
      "isFixedGasLimit": false
    },
    {
      "hash": null,
      "transactionType": "CALL",
      "contractName": null,
      "contractAddress": "0x4b38341b1126f45614b26319787ca98aec1b6f57",
      "function": "deploy(bytes32,bytes)",
      "arguments": [
        "0x7f82dd477a719fc05e51fc7fe7024617faa8f776d67d0c3d7513af2606ece246",
        "0x60a0604052348015600e575f5ffd5b50604051610855380380610855833981016040819052602b916068565b5f80546001600160a01b0319166001600160a01b03938416179055166080526094565b80516001600160a01b03811681146063575f5ffd5b919050565b5f5f604083850312156078575f5ffd5b607f83604e565b9150608b60208401604e565b90509250929050565b6080516107a96100ac5f395f61014301526107a95ff3fe608060405234801561000f575f5ffd5b506004361061006f575f3560e01c806387c445441161004d57806387c44544146100f2578063a6c3e6b91461013e578063d969fe0f14610165575f5ffd5b806324c73dda146100735780636835f32c146100bc57806383eeb373146100dc575b5f5ffd5b5f546100929073ffffffffffffffffffffffffffffffffffffffff1681565b60405173ffffffffffffffffffffffffffffffffffffffff90911681526020015b60405180910390f35b6100cf6100ca3660046104d1565b610178565b6040516100b391906105c1565b6100e45f5c81565b6040519081526020016100b3565b6101056101003660046104d1565b61037f565b6040805173ffffffffffffffffffffffffffffffffffffffff9095168552602085019390935291830152151560608201526080016100b3565b6100927f000000000000000000000000000000000000000000000000000000000000000081565b6101056101733660046104d1565b6103ce565b60605f5f5f8480602001905181019061019191906106de565b925092509250805f036101d0576040517f5112ab1000000000000000000000000000000000000000000000000000000000815260040160405180910390fd5b73ffffffffffffffffffffffffffffffffffffffff83161580610207575073ffffffffffffffffffffffffffffffffffffffff8216155b1561023e576040517f0f58648f00000000000000000000000000000000000000000000000000000000815260040160405180910390fd5b60408051600180825281830190925290816020015b60408051606080820183525f80835260208301529181019190915281526020019060019003908161025357905050935060405180606001604052808473ffffffffffffffffffffffffffffffffffffffff1681526020015f815260200182846040516024016102e292919091825273ffffffffffffffffffffffffffffffffffffffff16602082015260400190565b604080517fffffffffffffffffffffffffffffffffffffffffffffffffffffffffffffffe08184030181529190526020810180517bffffffffffffffffffffffffffffffffffffffffffffffffffffffff167f6e553f65000000000000000000000000000000000000000000000000000000001790529052845185905f9061036c5761036c61071a565b6020026020010181905250505050919050565b5f5f5f5f5f5c61038e866103ef565b6103989190610747565b805f5d505f95865c95507f87a7811f4bfedea3d341ad165680ae306b01aaeacc205d227629cf157dd9f821945060019350915050565b5f5f5f5f6103db856103ef565b805f5d505f95869550859450849350915050565b5f5f5f8380602001905181019061040691906106de565b506040517f70a0823100000000000000000000000000000000000000000000000000000000815273ffffffffffffffffffffffffffffffffffffffff8083166004830152929450909250908316906370a0823190602401602060405180830381865afa158015610478573d5f5f3e3d5ffd5b505050506040513d601f19601f8201168201806040525081019061049c9190610785565b949350505050565b7f4e487b71000000000000000000000000000000000000000000000000000000005f52604160045260245ffd5b5f602082840312156104e1575f5ffd5b813567ffffffffffffffff8111156104f7575f5ffd5b8201601f81018413610507575f5ffd5b803567ffffffffffffffff811115610521576105216104a4565b6040517fffffffffffffffffffffffffffffffffffffffffffffffffffffffffffffffe0603f7fffffffffffffffffffffffffffffffffffffffffffffffffffffffffffffffe0601f8501160116810181811067ffffffffffffffff8211171561058d5761058d6104a4565b6040528181528282016020018610156105a4575f5ffd5b816020840160208301375f91810160200191909152949350505050565b5f602082016020835280845180835260408501915060408160051b8601019250602086015f5b828110156106aa577fffffffffffffffffffffffffffffffffffffffffffffffffffffffffffffffc0878603018452815173ffffffffffffffffffffffffffffffffffffffff815116865260208101516020870152604081015190506060604087015280518060608801528060208301608089015e5f6080828901015260807fffffffffffffffffffffffffffffffffffffffffffffffffffffffffffffffe0601f830116880101965050506020820191506020840193506001810190506105e7565b50929695505050505050565b805173ffffffffffffffffffffffffffffffffffffffff811681146106d9575f5ffd5b919050565b5f5f5f606084860312156106f0575f5ffd5b6106f9846106b6565b9250610707602085016106b6565b6040949094015192959394509192915050565b7f4e487b71000000000000000000000000000000000000000000000000000000005f52603260045260245ffd5b8181038181111561077f577f4e487b71000000000000000000000000000000000000000000000000000000005f52601160045260245ffd5b92915050565b5f60208284031215610795575f5ffd5b505191905056fea164736f6c634300081c000a000000000000000000000000ce78ac97d73b0beab15df609235d9b0a34099704000000000000000000000000168910ea470113a07ec777769e76d9c8c80a402f"
      ],
      "transaction": {
        "from": "0x168910ea470113a07ec777769e76d9c8c80a402f",
        "to": "0x4b38341b1126f45614b26319787ca98aec1b6f57",
        "gas": "0x26fcb3",
        "value": "0x0",
        "input": "0xcdcb760a7f82dd477a719fc05e51fc7fe7024617faa8f776d67d0c3d7513af2606ece2460000000000000000000000000000000000000000000000000000000000000040000000000000000000000000000000000000000000000000000000000000089560a0604052348015600e575f5ffd5b50604051610855380380610855833981016040819052602b916068565b5f80546001600160a01b0319166001600160a01b03938416179055166080526094565b80516001600160a01b03811681146063575f5ffd5b919050565b5f5f604083850312156078575f5ffd5b607f83604e565b9150608b60208401604e565b90509250929050565b6080516107a96100ac5f395f61014301526107a95ff3fe608060405234801561000f575f5ffd5b506004361061006f575f3560e01c806387c445441161004d57806387c44544146100f2578063a6c3e6b91461013e578063d969fe0f14610165575f5ffd5b806324c73dda146100735780636835f32c146100bc57806383eeb373146100dc575b5f5ffd5b5f546100929073ffffffffffffffffffffffffffffffffffffffff1681565b60405173ffffffffffffffffffffffffffffffffffffffff90911681526020015b60405180910390f35b6100cf6100ca3660046104d1565b610178565b6040516100b391906105c1565b6100e45f5c81565b6040519081526020016100b3565b6101056101003660046104d1565b61037f565b6040805173ffffffffffffffffffffffffffffffffffffffff9095168552602085019390935291830152151560608201526080016100b3565b6100927f000000000000000000000000000000000000000000000000000000000000000081565b6101056101733660046104d1565b6103ce565b60605f5f5f8480602001905181019061019191906106de565b925092509250805f036101d0576040517f5112ab1000000000000000000000000000000000000000000000000000000000815260040160405180910390fd5b73ffffffffffffffffffffffffffffffffffffffff83161580610207575073ffffffffffffffffffffffffffffffffffffffff8216155b1561023e576040517f0f58648f00000000000000000000000000000000000000000000000000000000815260040160405180910390fd5b60408051600180825281830190925290816020015b60408051606080820183525f80835260208301529181019190915281526020019060019003908161025357905050935060405180606001604052808473ffffffffffffffffffffffffffffffffffffffff1681526020015f815260200182846040516024016102e292919091825273ffffffffffffffffffffffffffffffffffffffff16602082015260400190565b604080517fffffffffffffffffffffffffffffffffffffffffffffffffffffffffffffffe08184030181529190526020810180517bffffffffffffffffffffffffffffffffffffffffffffffffffffffff167f6e553f65000000000000000000000000000000000000000000000000000000001790529052845185905f9061036c5761036c61071a565b6020026020010181905250505050919050565b5f5f5f5f5f5c61038e866103ef565b6103989190610747565b805f5d505f95865c95507f87a7811f4bfedea3d341ad165680ae306b01aaeacc205d227629cf157dd9f821945060019350915050565b5f5f5f5f6103db856103ef565b805f5d505f95869550859450849350915050565b5f5f5f8380602001905181019061040691906106de565b506040517f70a0823100000000000000000000000000000000000000000000000000000000815273ffffffffffffffffffffffffffffffffffffffff8083166004830152929450909250908316906370a0823190602401602060405180830381865afa158015610478573d5f5f3e3d5ffd5b505050506040513d601f19601f8201168201806040525081019061049c9190610785565b949350505050565b7f4e487b71000000000000000000000000000000000000000000000000000000005f52604160045260245ffd5b5f602082840312156104e1575f5ffd5b813567ffffffffffffffff8111156104f7575f5ffd5b8201601f81018413610507575f5ffd5b803567ffffffffffffffff811115610521576105216104a4565b6040517fffffffffffffffffffffffffffffffffffffffffffffffffffffffffffffffe0603f7fffffffffffffffffffffffffffffffffffffffffffffffffffffffffffffffe0601f8501160116810181811067ffffffffffffffff8211171561058d5761058d6104a4565b6040528181528282016020018610156105a4575f5ffd5b816020840160208301375f91810160200191909152949350505050565b5f602082016020835280845180835260408501915060408160051b8601019250602086015f5b828110156106aa577fffffffffffffffffffffffffffffffffffffffffffffffffffffffffffffffc0878603018452815173ffffffffffffffffffffffffffffffffffffffff815116865260208101516020870152604081015190506060604087015280518060608801528060208301608089015e5f6080828901015260807fffffffffffffffffffffffffffffffffffffffffffffffffffffffffffffffe0601f830116880101965050506020820191506020840193506001810190506105e7565b50929695505050505050565b805173ffffffffffffffffffffffffffffffffffffffff811681146106d9575f5ffd5b919050565b5f5f5f606084860312156106f0575f5ffd5b6106f9846106b6565b9250610707602085016106b6565b6040949094015192959394509192915050565b7f4e487b71000000000000000000000000000000000000000000000000000000005f52603260045260245ffd5b8181038181111561077f577f4e487b71000000000000000000000000000000000000000000000000000000005f52601160045260245ffd5b92915050565b5f60208284031215610795575f5ffd5b505191905056fea164736f6c634300081c000a000000000000000000000000ce78ac97d73b0beab15df609235d9b0a34099704000000000000000000000000168910ea470113a07ec777769e76d9c8c80a402f0000000000000000000000",
        "nonce": "0x14",
        "chainId": "0xa4b1"
      },
      "additionalContracts": [
        {
          "transactionType": "CREATE2",
          "address": "0x5e078ed28d90a9c534a5c83f87eb2380f7f9fe7e",
          "initCode": "0x67363d3d37363d34f03d5260086018f3"
        },
        {
          "transactionType": "CREATE",
          "address": "0x0ba1e8060d9aef16bd7e2f8e1b146077e27e2409",
          "initCode": "0x60a0604052348015600e575f5ffd5b50604051610855380380610855833981016040819052602b916068565b5f80546001600160a01b0319166001600160a01b03938416179055166080526094565b80516001600160a01b03811681146063575f5ffd5b919050565b5f5f604083850312156078575f5ffd5b607f83604e565b9150608b60208401604e565b90509250929050565b6080516107a96100ac5f395f61014301526107a95ff3fe608060405234801561000f575f5ffd5b506004361061006f575f3560e01c806387c445441161004d57806387c44544146100f2578063a6c3e6b91461013e578063d969fe0f14610165575f5ffd5b806324c73dda146100735780636835f32c146100bc57806383eeb373146100dc575b5f5ffd5b5f546100929073ffffffffffffffffffffffffffffffffffffffff1681565b60405173ffffffffffffffffffffffffffffffffffffffff90911681526020015b60405180910390f35b6100cf6100ca3660046104d1565b610178565b6040516100b391906105c1565b6100e45f5c81565b6040519081526020016100b3565b6101056101003660046104d1565b61037f565b6040805173ffffffffffffffffffffffffffffffffffffffff9095168552602085019390935291830152151560608201526080016100b3565b6100927f000000000000000000000000000000000000000000000000000000000000000081565b6101056101733660046104d1565b6103ce565b60605f5f5f8480602001905181019061019191906106de565b925092509250805f036101d0576040517f5112ab1000000000000000000000000000000000000000000000000000000000815260040160405180910390fd5b73ffffffffffffffffffffffffffffffffffffffff83161580610207575073ffffffffffffffffffffffffffffffffffffffff8216155b1561023e576040517f0f58648f00000000000000000000000000000000000000000000000000000000815260040160405180910390fd5b60408051600180825281830190925290816020015b60408051606080820183525f80835260208301529181019190915281526020019060019003908161025357905050935060405180606001604052808473ffffffffffffffffffffffffffffffffffffffff1681526020015f815260200182846040516024016102e292919091825273ffffffffffffffffffffffffffffffffffffffff16602082015260400190565b604080517fffffffffffffffffffffffffffffffffffffffffffffffffffffffffffffffe08184030181529190526020810180517bffffffffffffffffffffffffffffffffffffffffffffffffffffffff167f6e553f65000000000000000000000000000000000000000000000000000000001790529052845185905f9061036c5761036c61071a565b6020026020010181905250505050919050565b5f5f5f5f5f5c61038e866103ef565b6103989190610747565b805f5d505f95865c95507f87a7811f4bfedea3d341ad165680ae306b01aaeacc205d227629cf157dd9f821945060019350915050565b5f5f5f5f6103db856103ef565b805f5d505f95869550859450849350915050565b5f5f5f8380602001905181019061040691906106de565b506040517f70a0823100000000000000000000000000000000000000000000000000000000815273ffffffffffffffffffffffffffffffffffffffff8083166004830152929450909250908316906370a0823190602401602060405180830381865afa158015610478573d5f5f3e3d5ffd5b505050506040513d601f19601f8201168201806040525081019061049c9190610785565b949350505050565b7f4e487b71000000000000000000000000000000000000000000000000000000005f52604160045260245ffd5b5f602082840312156104e1575f5ffd5b813567ffffffffffffffff8111156104f7575f5ffd5b8201601f81018413610507575f5ffd5b803567ffffffffffffffff811115610521576105216104a4565b6040517fffffffffffffffffffffffffffffffffffffffffffffffffffffffffffffffe0603f7fffffffffffffffffffffffffffffffffffffffffffffffffffffffffffffffe0601f8501160116810181811067ffffffffffffffff8211171561058d5761058d6104a4565b6040528181528282016020018610156105a4575f5ffd5b816020840160208301375f91810160200191909152949350505050565b5f602082016020835280845180835260408501915060408160051b8601019250602086015f5b828110156106aa577fffffffffffffffffffffffffffffffffffffffffffffffffffffffffffffffc0878603018452815173ffffffffffffffffffffffffffffffffffffffff815116865260208101516020870152604081015190506060604087015280518060608801528060208301608089015e5f6080828901015260807fffffffffffffffffffffffffffffffffffffffffffffffffffffffffffffffe0601f830116880101965050506020820191506020840193506001810190506105e7565b50929695505050505050565b805173ffffffffffffffffffffffffffffffffffffffff811681146106d9575f5ffd5b919050565b5f5f5f606084860312156106f0575f5ffd5b6106f9846106b6565b9250610707602085016106b6565b6040949094015192959394509192915050565b7f4e487b71000000000000000000000000000000000000000000000000000000005f52603260045260245ffd5b8181038181111561077f577f4e487b71000000000000000000000000000000000000000000000000000000005f52601160045260245ffd5b92915050565b5f60208284031215610795575f5ffd5b505191905056fea164736f6c634300081c000a000000000000000000000000ce78ac97d73b0beab15df609235d9b0a34099704000000000000000000000000168910ea470113a07ec777769e76d9c8c80a402f"
        }
      ],
      "isFixedGasLimit": false
    },
    {
      "hash": null,
      "transactionType": "CALL",
      "contractName": null,
      "contractAddress": "0x4b38341b1126f45614b26319787ca98aec1b6f57",
      "function": "deploy(bytes32,bytes)",
      "arguments": [
        "0xa0ff1ed9eab641de15450a34b040e3103103db5ac751836d97cf4a836c8e0da0",
        "0x60a0604052348015600e575f5ffd5b50604051610931380380610931833981016040819052602b916068565b5f80546001600160a01b0319166001600160a01b03938416179055166080526094565b80516001600160a01b03811681146063575f5ffd5b919050565b5f5f604083850312156078575f5ffd5b607f83604e565b9150608b60208401604e565b90509250929050565b6080516108856100ac5f395f61014301526108855ff3fe608060405234801561000f575f5ffd5b506004361061006f575f3560e01c806387c445441161004d57806387c44544146100f2578063a6c3e6b91461013e578063d969fe0f14610165575f5ffd5b806324c73dda146100735780636835f32c146100bc5780636babb7ec146100dc575b5f5ffd5b5f546100929073ffffffffffffffffffffffffffffffffffffffff1681565b60405173ffffffffffffffffffffffffffffffffffffffff90911681526020015b60405180910390f35b6100cf6100ca36600461053a565b610178565b6040516100b3919061062a565b6100e45f5c81565b6040519081526020016100b3565b61010561010036600461053a565b610370565b6040805173ffffffffffffffffffffffffffffffffffffffff9095168552602085019390935291830152151560608201526080016100b3565b6100927f000000000000000000000000000000000000000000000000000000000000000081565b61010561017336600461053a565b6103c7565b60605f5f5f5f858060200190518101906101929190610743565b9350935093509350805f036101d3576040517f5112ab1000000000000000000000000000000000000000000000000000000000815260040160405180910390fd5b73ffffffffffffffffffffffffffffffffffffffff8416158061020a575073ffffffffffffffffffffffffffffffffffffffff8216155b15610241576040517f0f58648f00000000000000000000000000000000000000000000000000000000815260040160405180910390fd5b60408051600180825281830190925290816020015b60408051606080820183525f808352602083015291810191909152815260200190600190039081610256579050506040805160608101825273ffffffffffffffffffffffffffffffffffffffff80881682525f6020830152825160248101869052878216604482015290861660648201529297509190820190608401604080517fffffffffffffffffffffffffffffffffffffffffffffffffffffffffffffffe08184030181529190526020810180517bffffffffffffffffffffffffffffffffffffffffffffffffffffffff167fba087652000000000000000000000000000000000000000000000000000000001790529052855186905f9061035c5761035c610793565b602002602001018190525050505050919050565b5f5f5f5f5f5c61037f866103e8565b61038991906107c0565b805f5d505f610397866103e8565b90969095507f7a8dc26796a1e50e6e190b70259f58f6a4edd5b22280ceecc82b687b8e98286994505f9350915050565b5f5f5f5f6103d4856103e8565b805f5d505f95869550859450849350915050565b5f5f5f838060200190518101906103ff91906107fe565b50915091505f8273ffffffffffffffffffffffffffffffffffffffff166338d52e0f6040518163ffffffff1660e01b8152600401602060405180830381865afa15801561044e573d5f5f3e3d5ffd5b505050506040513d601f19601f82011682018060405250810190610472919061083f565b6040517f70a0823100000000000000000000000000000000000000000000000000000000815273ffffffffffffffffffffffffffffffffffffffff8481166004830152919250908216906370a0823190602401602060405180830381865afa1580156104e0573d5f5f3e3d5ffd5b505050506040513d601f19601f820116820180604052508101906105049190610861565b95945050505050565b7f4e487b71000000000000000000000000000000000000000000000000000000005f52604160045260245ffd5b5f6020828403121561054a575f5ffd5b813567ffffffffffffffff811115610560575f5ffd5b8201601f81018413610570575f5ffd5b803567ffffffffffffffff81111561058a5761058a61050d565b6040517fffffffffffffffffffffffffffffffffffffffffffffffffffffffffffffffe0603f7fffffffffffffffffffffffffffffffffffffffffffffffffffffffffffffffe0601f8501160116810181811067ffffffffffffffff821117156105f6576105f661050d565b60405281815282820160200186101561060d575f5ffd5b816020840160208301375f91810160200191909152949350505050565b5f602082016020835280845180835260408501915060408160051b8601019250602086015f5b82811015610713577fffffffffffffffffffffffffffffffffffffffffffffffffffffffffffffffc0878603018452815173ffffffffffffffffffffffffffffffffffffffff815116865260208101516020870152604081015190506060604087015280518060608801528060208301608089015e5f6080828901015260807fffffffffffffffffffffffffffffffffffffffffffffffffffffffffffffffe0601f83011688010196505050602082019150602084019350600181019050610650565b50929695505050505050565b73ffffffffffffffffffffffffffffffffffffffff81168114610740575f5ffd5b50565b5f5f5f5f60808587031215610756575f5ffd5b84516107618161071f565b60208601519094506107728161071f565b60408601519093506107838161071f565b6060959095015193969295505050565b7f4e487b71000000000000000000000000000000000000000000000000000000005f52603260045260245ffd5b818103818111156107f8577f4e487b71000000000000000000000000000000000000000000000000000000005f52601160045260245ffd5b92915050565b5f5f5f60608486031215610810575f5ffd5b835161081b8161071f565b602085015190935061082c8161071f565b6040949094015192959394509192915050565b5f6020828403121561084f575f5ffd5b815161085a8161071f565b9392505050565b5f60208284031215610871575f5ffd5b505191905056fea164736f6c634300081c000a000000000000000000000000ce78ac97d73b0beab15df609235d9b0a34099704000000000000000000000000168910ea470113a07ec777769e76d9c8c80a402f"
      ],
      "transaction": {
        "from": "0x168910ea470113a07ec777769e76d9c8c80a402f",
        "to": "0x4b38341b1126f45614b26319787ca98aec1b6f57",
        "gas": "0x2a13d3",
        "value": "0x0",
        "input": "0xcdcb760aa0ff1ed9eab641de15450a34b040e3103103db5ac751836d97cf4a836c8e0da00000000000000000000000000000000000000000000000000000000000000040000000000000000000000000000000000000000000000000000000000000097160a0604052348015600e575f5ffd5b50604051610931380380610931833981016040819052602b916068565b5f80546001600160a01b0319166001600160a01b03938416179055166080526094565b80516001600160a01b03811681146063575f5ffd5b919050565b5f5f604083850312156078575f5ffd5b607f83604e565b9150608b60208401604e565b90509250929050565b6080516108856100ac5f395f61014301526108855ff3fe608060405234801561000f575f5ffd5b506004361061006f575f3560e01c806387c445441161004d57806387c44544146100f2578063a6c3e6b91461013e578063d969fe0f14610165575f5ffd5b806324c73dda146100735780636835f32c146100bc5780636babb7ec146100dc575b5f5ffd5b5f546100929073ffffffffffffffffffffffffffffffffffffffff1681565b60405173ffffffffffffffffffffffffffffffffffffffff90911681526020015b60405180910390f35b6100cf6100ca36600461053a565b610178565b6040516100b3919061062a565b6100e45f5c81565b6040519081526020016100b3565b61010561010036600461053a565b610370565b6040805173ffffffffffffffffffffffffffffffffffffffff9095168552602085019390935291830152151560608201526080016100b3565b6100927f000000000000000000000000000000000000000000000000000000000000000081565b61010561017336600461053a565b6103c7565b60605f5f5f5f858060200190518101906101929190610743565b9350935093509350805f036101d3576040517f5112ab1000000000000000000000000000000000000000000000000000000000815260040160405180910390fd5b73ffffffffffffffffffffffffffffffffffffffff8416158061020a575073ffffffffffffffffffffffffffffffffffffffff8216155b15610241576040517f0f58648f00000000000000000000000000000000000000000000000000000000815260040160405180910390fd5b60408051600180825281830190925290816020015b60408051606080820183525f808352602083015291810191909152815260200190600190039081610256579050506040805160608101825273ffffffffffffffffffffffffffffffffffffffff80881682525f6020830152825160248101869052878216604482015290861660648201529297509190820190608401604080517fffffffffffffffffffffffffffffffffffffffffffffffffffffffffffffffe08184030181529190526020810180517bffffffffffffffffffffffffffffffffffffffffffffffffffffffff167fba087652000000000000000000000000000000000000000000000000000000001790529052855186905f9061035c5761035c610793565b602002602001018190525050505050919050565b5f5f5f5f5f5c61037f866103e8565b61038991906107c0565b805f5d505f610397866103e8565b90969095507f7a8dc26796a1e50e6e190b70259f58f6a4edd5b22280ceecc82b687b8e98286994505f9350915050565b5f5f5f5f6103d4856103e8565b805f5d505f95869550859450849350915050565b5f5f5f838060200190518101906103ff91906107fe565b50915091505f8273ffffffffffffffffffffffffffffffffffffffff166338d52e0f6040518163ffffffff1660e01b8152600401602060405180830381865afa15801561044e573d5f5f3e3d5ffd5b505050506040513d601f19601f82011682018060405250810190610472919061083f565b6040517f70a0823100000000000000000000000000000000000000000000000000000000815273ffffffffffffffffffffffffffffffffffffffff8481166004830152919250908216906370a0823190602401602060405180830381865afa1580156104e0573d5f5f3e3d5ffd5b505050506040513d601f19601f820116820180604052508101906105049190610861565b95945050505050565b7f4e487b71000000000000000000000000000000000000000000000000000000005f52604160045260245ffd5b5f6020828403121561054a575f5ffd5b813567ffffffffffffffff811115610560575f5ffd5b8201601f81018413610570575f5ffd5b803567ffffffffffffffff81111561058a5761058a61050d565b6040517fffffffffffffffffffffffffffffffffffffffffffffffffffffffffffffffe0603f7fffffffffffffffffffffffffffffffffffffffffffffffffffffffffffffffe0601f8501160116810181811067ffffffffffffffff821117156105f6576105f661050d565b60405281815282820160200186101561060d575f5ffd5b816020840160208301375f91810160200191909152949350505050565b5f602082016020835280845180835260408501915060408160051b8601019250602086015f5b82811015610713577fffffffffffffffffffffffffffffffffffffffffffffffffffffffffffffffc0878603018452815173ffffffffffffffffffffffffffffffffffffffff815116865260208101516020870152604081015190506060604087015280518060608801528060208301608089015e5f6080828901015260807fffffffffffffffffffffffffffffffffffffffffffffffffffffffffffffffe0601f83011688010196505050602082019150602084019350600181019050610650565b50929695505050505050565b73ffffffffffffffffffffffffffffffffffffffff81168114610740575f5ffd5b50565b5f5f5f5f60808587031215610756575f5ffd5b84516107618161071f565b60208601519094506107728161071f565b60408601519093506107838161071f565b6060959095015193969295505050565b7f4e487b71000000000000000000000000000000000000000000000000000000005f52603260045260245ffd5b818103818111156107f8577f4e487b71000000000000000000000000000000000000000000000000000000005f52601160045260245ffd5b92915050565b5f5f5f60608486031215610810575f5ffd5b835161081b8161071f565b602085015190935061082c8161071f565b6040949094015192959394509192915050565b5f6020828403121561084f575f5ffd5b815161085a8161071f565b9392505050565b5f60208284031215610871575f5ffd5b505191905056fea164736f6c634300081c000a000000000000000000000000ce78ac97d73b0beab15df609235d9b0a34099704000000000000000000000000168910ea470113a07ec777769e76d9c8c80a402f000000000000000000000000000000",
        "nonce": "0x15",
        "chainId": "0xa4b1"
      },
      "additionalContracts": [
        {
          "transactionType": "CREATE2",
          "address": "0x6e4a08208b6d3f6d8ee9bb7c3ed06f04e7d3af7f",
          "initCode": "0x67363d3d37363d34f03d5260086018f3"
        },
        {
          "transactionType": "CREATE",
          "address": "0x124ec30e090b005b8bd47f1b2ba18dac317531fa",
          "initCode": "0x60a0604052348015600e575f5ffd5b50604051610931380380610931833981016040819052602b916068565b5f80546001600160a01b0319166001600160a01b03938416179055166080526094565b80516001600160a01b03811681146063575f5ffd5b919050565b5f5f604083850312156078575f5ffd5b607f83604e565b9150608b60208401604e565b90509250929050565b6080516108856100ac5f395f61014301526108855ff3fe608060405234801561000f575f5ffd5b506004361061006f575f3560e01c806387c445441161004d57806387c44544146100f2578063a6c3e6b91461013e578063d969fe0f14610165575f5ffd5b806324c73dda146100735780636835f32c146100bc5780636babb7ec146100dc575b5f5ffd5b5f546100929073ffffffffffffffffffffffffffffffffffffffff1681565b60405173ffffffffffffffffffffffffffffffffffffffff90911681526020015b60405180910390f35b6100cf6100ca36600461053a565b610178565b6040516100b3919061062a565b6100e45f5c81565b6040519081526020016100b3565b61010561010036600461053a565b610370565b6040805173ffffffffffffffffffffffffffffffffffffffff9095168552602085019390935291830152151560608201526080016100b3565b6100927f000000000000000000000000000000000000000000000000000000000000000081565b61010561017336600461053a565b6103c7565b60605f5f5f5f858060200190518101906101929190610743565b9350935093509350805f036101d3576040517f5112ab1000000000000000000000000000000000000000000000000000000000815260040160405180910390fd5b73ffffffffffffffffffffffffffffffffffffffff8416158061020a575073ffffffffffffffffffffffffffffffffffffffff8216155b15610241576040517f0f58648f00000000000000000000000000000000000000000000000000000000815260040160405180910390fd5b60408051600180825281830190925290816020015b60408051606080820183525f808352602083015291810191909152815260200190600190039081610256579050506040805160608101825273ffffffffffffffffffffffffffffffffffffffff80881682525f6020830152825160248101869052878216604482015290861660648201529297509190820190608401604080517fffffffffffffffffffffffffffffffffffffffffffffffffffffffffffffffe08184030181529190526020810180517bffffffffffffffffffffffffffffffffffffffffffffffffffffffff167fba087652000000000000000000000000000000000000000000000000000000001790529052855186905f9061035c5761035c610793565b602002602001018190525050505050919050565b5f5f5f5f5f5c61037f866103e8565b61038991906107c0565b805f5d505f610397866103e8565b90969095507f7a8dc26796a1e50e6e190b70259f58f6a4edd5b22280ceecc82b687b8e98286994505f9350915050565b5f5f5f5f6103d4856103e8565b805f5d505f95869550859450849350915050565b5f5f5f838060200190518101906103ff91906107fe565b50915091505f8273ffffffffffffffffffffffffffffffffffffffff166338d52e0f6040518163ffffffff1660e01b8152600401602060405180830381865afa15801561044e573d5f5f3e3d5ffd5b505050506040513d601f19601f82011682018060405250810190610472919061083f565b6040517f70a0823100000000000000000000000000000000000000000000000000000000815273ffffffffffffffffffffffffffffffffffffffff8481166004830152919250908216906370a0823190602401602060405180830381865afa1580156104e0573d5f5f3e3d5ffd5b505050506040513d601f19601f820116820180604052508101906105049190610861565b95945050505050565b7f4e487b71000000000000000000000000000000000000000000000000000000005f52604160045260245ffd5b5f6020828403121561054a575f5ffd5b813567ffffffffffffffff811115610560575f5ffd5b8201601f81018413610570575f5ffd5b803567ffffffffffffffff81111561058a5761058a61050d565b6040517fffffffffffffffffffffffffffffffffffffffffffffffffffffffffffffffe0603f7fffffffffffffffffffffffffffffffffffffffffffffffffffffffffffffffe0601f8501160116810181811067ffffffffffffffff821117156105f6576105f661050d565b60405281815282820160200186101561060d575f5ffd5b816020840160208301375f91810160200191909152949350505050565b5f602082016020835280845180835260408501915060408160051b8601019250602086015f5b82811015610713577fffffffffffffffffffffffffffffffffffffffffffffffffffffffffffffffc0878603018452815173ffffffffffffffffffffffffffffffffffffffff815116865260208101516020870152604081015190506060604087015280518060608801528060208301608089015e5f6080828901015260807fffffffffffffffffffffffffffffffffffffffffffffffffffffffffffffffe0601f83011688010196505050602082019150602084019350600181019050610650565b50929695505050505050565b73ffffffffffffffffffffffffffffffffffffffff81168114610740575f5ffd5b50565b5f5f5f5f60808587031215610756575f5ffd5b84516107618161071f565b60208601519094506107728161071f565b60408601519093506107838161071f565b6060959095015193969295505050565b7f4e487b71000000000000000000000000000000000000000000000000000000005f52603260045260245ffd5b818103818111156107f8577f4e487b71000000000000000000000000000000000000000000000000000000005f52601160045260245ffd5b92915050565b5f5f5f60608486031215610810575f5ffd5b835161081b8161071f565b602085015190935061082c8161071f565b6040949094015192959394509192915050565b5f6020828403121561084f575f5ffd5b815161085a8161071f565b9392505050565b5f60208284031215610871575f5ffd5b505191905056fea164736f6c634300081c000a000000000000000000000000ce78ac97d73b0beab15df609235d9b0a34099704000000000000000000000000168910ea470113a07ec777769e76d9c8c80a402f"
        }
      ],
      "isFixedGasLimit": false
    },
    {
      "hash": null,
      "transactionType": "CALL",
      "contractName": null,
      "contractAddress": "0x4b38341b1126f45614b26319787ca98aec1b6f57",
      "function": "deploy(bytes32,bytes)",
      "arguments": [
        "0x3a82896d28ab4862c583f32339cd192dab618be3712cc308fe0c2721563cdca2",
        "0x60a0604052348015600e575f5ffd5b50604051610824380380610824833981016040819052602b916068565b5f80546001600160a01b0319166001600160a01b03938416179055166080526094565b80516001600160a01b03811681146063575f5ffd5b919050565b5f5f604083850312156078575f5ffd5b607f83604e565b9150608b60208401604e565b90509250929050565b6080516107786100ac5f395f61012201526107785ff3fe608060405234801561000f575f5ffd5b5060043610610064575f3560e01c806387c445441161004d57806387c44544146100d1578063a6c3e6b91461011d578063d969fe0f146100d1575f5ffd5b806324c73dda146100685780636835f32c146100b1575b5f5ffd5b5f546100879073ffffffffffffffffffffffffffffffffffffffff1681565b60405173ffffffffffffffffffffffffffffffffffffffff90911681526020015b60405180910390f35b6100c46100bf366004610472565b610144565b6040516100a89190610562565b6100e46100df366004610472565b610372565b6040805173ffffffffffffffffffffffffffffffffffffffff9095168552602085019390935291830152151560608201526080016100a8565b6100877f000000000000000000000000000000000000000000000000000000000000000081565b60605f5f5f5f5f5f87806020019051810190610160919061067f565b955095509550955095509550825f036101a5576040517f5112ab1000000000000000000000000000000000000000000000000000000000815260040160405180910390fd5b73ffffffffffffffffffffffffffffffffffffffff861615806101dc575073ffffffffffffffffffffffffffffffffffffffff8516155b806101fb575073ffffffffffffffffffffffffffffffffffffffff8416155b15610232576040517f0f58648f00000000000000000000000000000000000000000000000000000000815260040160405180910390fd5b60408051600180825281830190925290816020015b60408051606080820183525f808352602083015291810191909152815260200190600190039081610247579050506040805160608101825273ffffffffffffffffffffffffffffffffffffffff808a1682525f6020830152825189821660248201526044810188905290881660648201526084810186905284151560a4820152929950919082019060c401604080517fffffffffffffffffffffffffffffffffffffffffffffffffffffffffffffffe08184030181529190526020810180517bffffffffffffffffffffffffffffffffffffffffffffffffffffffff167f769f8e5d000000000000000000000000000000000000000000000000000000001790529052875188905f9061035c5761035c6106eb565b6020026020010181905250505050505050919050565b5f5f5f5f5f61038086610390565b90969095505f9450849350915050565b5f5f5f838060200190518101906103a79190610718565b506040517f70a0823100000000000000000000000000000000000000000000000000000000815273ffffffffffffffffffffffffffffffffffffffff8083166004830152929450909250908316906370a0823190602401602060405180830381865afa158015610419573d5f5f3e3d5ffd5b505050506040513d601f19601f8201168201806040525081019061043d9190610754565b949350505050565b7f4e487b71000000000000000000000000000000000000000000000000000000005f52604160045260245ffd5b5f60208284031215610482575f5ffd5b813567ffffffffffffffff811115610498575f5ffd5b8201601f810184136104a8575f5ffd5b803567ffffffffffffffff8111156104c2576104c2610445565b6040517fffffffffffffffffffffffffffffffffffffffffffffffffffffffffffffffe0603f7fffffffffffffffffffffffffffffffffffffffffffffffffffffffffffffffe0601f8501160116810181811067ffffffffffffffff8211171561052e5761052e610445565b604052818152828201602001861015610545575f5ffd5b816020840160208301375f91810160200191909152949350505050565b5f602082016020835280845180835260408501915060408160051b8601019250602086015f5b8281101561064b577fffffffffffffffffffffffffffffffffffffffffffffffffffffffffffffffc0878603018452815173ffffffffffffffffffffffffffffffffffffffff815116865260208101516020870152604081015190506060604087015280518060608801528060208301608089015e5f6080828901015260807fffffffffffffffffffffffffffffffffffffffffffffffffffffffffffffffe0601f83011688010196505050602082019150602084019350600181019050610588565b50929695505050505050565b805173ffffffffffffffffffffffffffffffffffffffff8116811461067a575f5ffd5b919050565b5f5f5f5f5f5f60c08789031215610694575f5ffd5b61069d87610657565b95506106ab60208801610657565b94506106b960408801610657565b6060880151608089015160a08a0151929650909450925080151581146106dd575f5ffd5b809150509295509295509295565b7f4e487b71000000000000000000000000000000000000000000000000000000005f52603260045260245ffd5b5f5f5f6060848603121561072a575f5ffd5b61073384610657565b925061074160208501610657565b6040949094015192959394509192915050565b5f60208284031215610764575f5ffd5b505191905056fea164736f6c634300081c000a000000000000000000000000ce78ac97d73b0beab15df609235d9b0a34099704000000000000000000000000168910ea470113a07ec777769e76d9c8c80a402f"
      ],
      "transaction": {
        "from": "0x168910ea470113a07ec777769e76d9c8c80a402f",
        "to": "0x4b38341b1126f45614b26319787ca98aec1b6f57",
        "gas": "0x26006e",
        "value": "0x0",
        "input": "0xcdcb760a3a82896d28ab4862c583f32339cd192dab618be3712cc308fe0c2721563cdca20000000000000000000000000000000000000000000000000000000000000040000000000000000000000000000000000000000000000000000000000000086460a0604052348015600e575f5ffd5b50604051610824380380610824833981016040819052602b916068565b5f80546001600160a01b0319166001600160a01b03938416179055166080526094565b80516001600160a01b03811681146063575f5ffd5b919050565b5f5f604083850312156078575f5ffd5b607f83604e565b9150608b60208401604e565b90509250929050565b6080516107786100ac5f395f61012201526107785ff3fe608060405234801561000f575f5ffd5b5060043610610064575f3560e01c806387c445441161004d57806387c44544146100d1578063a6c3e6b91461011d578063d969fe0f146100d1575f5ffd5b806324c73dda146100685780636835f32c146100b1575b5f5ffd5b5f546100879073ffffffffffffffffffffffffffffffffffffffff1681565b60405173ffffffffffffffffffffffffffffffffffffffff90911681526020015b60405180910390f35b6100c46100bf366004610472565b610144565b6040516100a89190610562565b6100e46100df366004610472565b610372565b6040805173ffffffffffffffffffffffffffffffffffffffff9095168552602085019390935291830152151560608201526080016100a8565b6100877f000000000000000000000000000000000000000000000000000000000000000081565b60605f5f5f5f5f5f87806020019051810190610160919061067f565b955095509550955095509550825f036101a5576040517f5112ab1000000000000000000000000000000000000000000000000000000000815260040160405180910390fd5b73ffffffffffffffffffffffffffffffffffffffff861615806101dc575073ffffffffffffffffffffffffffffffffffffffff8516155b806101fb575073ffffffffffffffffffffffffffffffffffffffff8416155b15610232576040517f0f58648f00000000000000000000000000000000000000000000000000000000815260040160405180910390fd5b60408051600180825281830190925290816020015b60408051606080820183525f808352602083015291810191909152815260200190600190039081610247579050506040805160608101825273ffffffffffffffffffffffffffffffffffffffff808a1682525f6020830152825189821660248201526044810188905290881660648201526084810186905284151560a4820152929950919082019060c401604080517fffffffffffffffffffffffffffffffffffffffffffffffffffffffffffffffe08184030181529190526020810180517bffffffffffffffffffffffffffffffffffffffffffffffffffffffff167f769f8e5d000000000000000000000000000000000000000000000000000000001790529052875188905f9061035c5761035c6106eb565b6020026020010181905250505050505050919050565b5f5f5f5f5f61038086610390565b90969095505f9450849350915050565b5f5f5f838060200190518101906103a79190610718565b506040517f70a0823100000000000000000000000000000000000000000000000000000000815273ffffffffffffffffffffffffffffffffffffffff8083166004830152929450909250908316906370a0823190602401602060405180830381865afa158015610419573d5f5f3e3d5ffd5b505050506040513d601f19601f8201168201806040525081019061043d9190610754565b949350505050565b7f4e487b71000000000000000000000000000000000000000000000000000000005f52604160045260245ffd5b5f60208284031215610482575f5ffd5b813567ffffffffffffffff811115610498575f5ffd5b8201601f810184136104a8575f5ffd5b803567ffffffffffffffff8111156104c2576104c2610445565b6040517fffffffffffffffffffffffffffffffffffffffffffffffffffffffffffffffe0603f7fffffffffffffffffffffffffffffffffffffffffffffffffffffffffffffffe0601f8501160116810181811067ffffffffffffffff8211171561052e5761052e610445565b604052818152828201602001861015610545575f5ffd5b816020840160208301375f91810160200191909152949350505050565b5f602082016020835280845180835260408501915060408160051b8601019250602086015f5b8281101561064b577fffffffffffffffffffffffffffffffffffffffffffffffffffffffffffffffc0878603018452815173ffffffffffffffffffffffffffffffffffffffff815116865260208101516020870152604081015190506060604087015280518060608801528060208301608089015e5f6080828901015260807fffffffffffffffffffffffffffffffffffffffffffffffffffffffffffffffe0601f83011688010196505050602082019150602084019350600181019050610588565b50929695505050505050565b805173ffffffffffffffffffffffffffffffffffffffff8116811461067a575f5ffd5b919050565b5f5f5f5f5f5f60c08789031215610694575f5ffd5b61069d87610657565b95506106ab60208801610657565b94506106b960408801610657565b6060880151608089015160a08a0151929650909450925080151581146106dd575f5ffd5b809150509295509295509295565b7f4e487b71000000000000000000000000000000000000000000000000000000005f52603260045260245ffd5b5f5f5f6060848603121561072a575f5ffd5b61073384610657565b925061074160208501610657565b6040949094015192959394509192915050565b5f60208284031215610764575f5ffd5b505191905056fea164736f6c634300081c000a000000000000000000000000ce78ac97d73b0beab15df609235d9b0a34099704000000000000000000000000168910ea470113a07ec777769e76d9c8c80a402f00000000000000000000000000000000000000000000000000000000",
        "nonce": "0x16",
        "chainId": "0xa4b1"
      },
      "additionalContracts": [
        {
          "transactionType": "CREATE2",
          "address": "0xca713f2bc68574091eeaa2b02581ea6b7afc7ec8",
          "initCode": "0x67363d3d37363d34f03d5260086018f3"
        },
        {
          "transactionType": "CREATE",
          "address": "0xa3438a934507ee9faf1c5b89ea3d3b1669255220",
          "initCode": "0x60a0604052348015600e575f5ffd5b50604051610824380380610824833981016040819052602b916068565b5f80546001600160a01b0319166001600160a01b03938416179055166080526094565b80516001600160a01b03811681146063575f5ffd5b919050565b5f5f604083850312156078575f5ffd5b607f83604e565b9150608b60208401604e565b90509250929050565b6080516107786100ac5f395f61012201526107785ff3fe608060405234801561000f575f5ffd5b5060043610610064575f3560e01c806387c445441161004d57806387c44544146100d1578063a6c3e6b91461011d578063d969fe0f146100d1575f5ffd5b806324c73dda146100685780636835f32c146100b1575b5f5ffd5b5f546100879073ffffffffffffffffffffffffffffffffffffffff1681565b60405173ffffffffffffffffffffffffffffffffffffffff90911681526020015b60405180910390f35b6100c46100bf366004610472565b610144565b6040516100a89190610562565b6100e46100df366004610472565b610372565b6040805173ffffffffffffffffffffffffffffffffffffffff9095168552602085019390935291830152151560608201526080016100a8565b6100877f000000000000000000000000000000000000000000000000000000000000000081565b60605f5f5f5f5f5f87806020019051810190610160919061067f565b955095509550955095509550825f036101a5576040517f5112ab1000000000000000000000000000000000000000000000000000000000815260040160405180910390fd5b73ffffffffffffffffffffffffffffffffffffffff861615806101dc575073ffffffffffffffffffffffffffffffffffffffff8516155b806101fb575073ffffffffffffffffffffffffffffffffffffffff8416155b15610232576040517f0f58648f00000000000000000000000000000000000000000000000000000000815260040160405180910390fd5b60408051600180825281830190925290816020015b60408051606080820183525f808352602083015291810191909152815260200190600190039081610247579050506040805160608101825273ffffffffffffffffffffffffffffffffffffffff808a1682525f6020830152825189821660248201526044810188905290881660648201526084810186905284151560a4820152929950919082019060c401604080517fffffffffffffffffffffffffffffffffffffffffffffffffffffffffffffffe08184030181529190526020810180517bffffffffffffffffffffffffffffffffffffffffffffffffffffffff167f769f8e5d000000000000000000000000000000000000000000000000000000001790529052875188905f9061035c5761035c6106eb565b6020026020010181905250505050505050919050565b5f5f5f5f5f61038086610390565b90969095505f9450849350915050565b5f5f5f838060200190518101906103a79190610718565b506040517f70a0823100000000000000000000000000000000000000000000000000000000815273ffffffffffffffffffffffffffffffffffffffff8083166004830152929450909250908316906370a0823190602401602060405180830381865afa158015610419573d5f5f3e3d5ffd5b505050506040513d601f19601f8201168201806040525081019061043d9190610754565b949350505050565b7f4e487b71000000000000000000000000000000000000000000000000000000005f52604160045260245ffd5b5f60208284031215610482575f5ffd5b813567ffffffffffffffff811115610498575f5ffd5b8201601f810184136104a8575f5ffd5b803567ffffffffffffffff8111156104c2576104c2610445565b6040517fffffffffffffffffffffffffffffffffffffffffffffffffffffffffffffffe0603f7fffffffffffffffffffffffffffffffffffffffffffffffffffffffffffffffe0601f8501160116810181811067ffffffffffffffff8211171561052e5761052e610445565b604052818152828201602001861015610545575f5ffd5b816020840160208301375f91810160200191909152949350505050565b5f602082016020835280845180835260408501915060408160051b8601019250602086015f5b8281101561064b577fffffffffffffffffffffffffffffffffffffffffffffffffffffffffffffffc0878603018452815173ffffffffffffffffffffffffffffffffffffffff815116865260208101516020870152604081015190506060604087015280518060608801528060208301608089015e5f6080828901015260807fffffffffffffffffffffffffffffffffffffffffffffffffffffffffffffffe0601f83011688010196505050602082019150602084019350600181019050610588565b50929695505050505050565b805173ffffffffffffffffffffffffffffffffffffffff8116811461067a575f5ffd5b919050565b5f5f5f5f5f5f60c08789031215610694575f5ffd5b61069d87610657565b95506106ab60208801610657565b94506106b960408801610657565b6060880151608089015160a08a0151929650909450925080151581146106dd575f5ffd5b809150509295509295509295565b7f4e487b71000000000000000000000000000000000000000000000000000000005f52603260045260245ffd5b5f5f5f6060848603121561072a575f5ffd5b61073384610657565b925061074160208501610657565b6040949094015192959394509192915050565b5f60208284031215610764575f5ffd5b505191905056fea164736f6c634300081c000a000000000000000000000000ce78ac97d73b0beab15df609235d9b0a34099704000000000000000000000000168910ea470113a07ec777769e76d9c8c80a402f"
        }
      ],
      "isFixedGasLimit": false
    },
    {
      "hash": null,
      "transactionType": "CALL",
      "contractName": null,
      "contractAddress": "0x4b38341b1126f45614b26319787ca98aec1b6f57",
      "function": "deploy(bytes32,bytes)",
      "arguments": [
        "0x2e94c678ce4dcb661ca51ca345676199de7df177f94066c5769f008913cda94f",
        "0x60a0604052348015600e575f5ffd5b506040516108a03803806108a0833981016040819052602b916068565b5f80546001600160a01b0319166001600160a01b03938416179055166080526094565b80516001600160a01b03811681146063575f5ffd5b919050565b5f5f604083850312156078575f5ffd5b607f83604e565b9150608b60208401604e565b90509250929050565b6080516107f46100ac5f395f61012201526107f45ff3fe608060405234801561000f575f5ffd5b5060043610610064575f3560e01c806387c445441161004d57806387c44544146100d1578063a6c3e6b91461011d578063d969fe0f146100d1575f5ffd5b806324c73dda146100685780636835f32c146100b1575b5f5ffd5b5f546100879073ffffffffffffffffffffffffffffffffffffffff1681565b60405173ffffffffffffffffffffffffffffffffffffffff90911681526020015b60405180910390f35b6100c46100bf3660046104c3565b610144565b6040516100a891906105b3565b6100e46100df3660046104c3565b610353565b6040805173ffffffffffffffffffffffffffffffffffffffff9095168552602085019390935291830152151560608201526080016100a8565b6100877f000000000000000000000000000000000000000000000000000000000000000081565b60605f5f5f5f5f5f8780602001905181019061016091906106cc565b955095509550955095509550825f036101a5576040517f5112ab1000000000000000000000000000000000000000000000000000000000815260040160405180910390fd5b73ffffffffffffffffffffffffffffffffffffffff861615806101dc575073ffffffffffffffffffffffffffffffffffffffff8416155b15610213576040517f0f58648f00000000000000000000000000000000000000000000000000000000815260040160405180910390fd5b60408051600180825281830190925290816020015b60408051606080820183525f808352602083015291810191909152815260200190600190039081610228579050506040805160608101825273ffffffffffffffffffffffffffffffffffffffff808a1682525f6020830152825189821660248201526044810188905290881660648201526084810186905284151560a4820152929950919082019060c401604080517fffffffffffffffffffffffffffffffffffffffffffffffffffffffffffffffe08184030181529190526020810180517bffffffffffffffffffffffffffffffffffffffffffffffffffffffff167f769f8e5d000000000000000000000000000000000000000000000000000000001790529052875188905f9061033d5761033d610740565b6020026020010181905250505050505050919050565b5f5f5f5f5f61036186610371565b90969095505f9450849350915050565b5f5f5f83806020019051810190610388919061076d565b50915091505f8273ffffffffffffffffffffffffffffffffffffffff166338d52e0f6040518163ffffffff1660e01b8152600401602060405180830381865afa1580156103d7573d5f5f3e3d5ffd5b505050506040513d601f19601f820116820180604052508101906103fb91906107ae565b6040517f70a0823100000000000000000000000000000000000000000000000000000000815273ffffffffffffffffffffffffffffffffffffffff8481166004830152919250908216906370a0823190602401602060405180830381865afa158015610469573d5f5f3e3d5ffd5b505050506040513d601f19601f8201168201806040525081019061048d91906107d0565b95945050505050565b7f4e487b71000000000000000000000000000000000000000000000000000000005f52604160045260245ffd5b5f602082840312156104d3575f5ffd5b813567ffffffffffffffff8111156104e9575f5ffd5b8201601f810184136104f9575f5ffd5b803567ffffffffffffffff81111561051357610513610496565b6040517fffffffffffffffffffffffffffffffffffffffffffffffffffffffffffffffe0603f7fffffffffffffffffffffffffffffffffffffffffffffffffffffffffffffffe0601f8501160116810181811067ffffffffffffffff8211171561057f5761057f610496565b604052818152828201602001861015610596575f5ffd5b816020840160208301375f91810160200191909152949350505050565b5f602082016020835280845180835260408501915060408160051b8601019250602086015f5b8281101561069c577fffffffffffffffffffffffffffffffffffffffffffffffffffffffffffffffc0878603018452815173ffffffffffffffffffffffffffffffffffffffff815116865260208101516020870152604081015190506060604087015280518060608801528060208301608089015e5f6080828901015260807fffffffffffffffffffffffffffffffffffffffffffffffffffffffffffffffe0601f830116880101965050506020820191506020840193506001810190506105d9565b50929695505050505050565b73ffffffffffffffffffffffffffffffffffffffff811681146106c9575f5ffd5b50565b5f5f5f5f5f5f60c087890312156106e1575f5ffd5b86516106ec816106a8565b60208801519096506106fd816106a8565b604088015190955061070e816106a8565b6060880151608089015160a08a015192965090945092508015158114610732575f5ffd5b809150509295509295509295565b7f4e487b71000000000000000000000000000000000000000000000000000000005f52603260045260245ffd5b5f5f5f6060848603121561077f575f5ffd5b835161078a816106a8565b602085015190935061079b816106a8565b6040949094015192959394509192915050565b5f602082840312156107be575f5ffd5b81516107c9816106a8565b9392505050565b5f602082840312156107e0575f5ffd5b505191905056fea164736f6c634300081c000a000000000000000000000000ce78ac97d73b0beab15df609235d9b0a34099704000000000000000000000000168910ea470113a07ec777769e76d9c8c80a402f"
      ],
      "transaction": {
        "from": "0x168910ea470113a07ec777769e76d9c8c80a402f",
        "to": "0x4b38341b1126f45614b26319787ca98aec1b6f57",
        "gas": "0x27a471",
        "value": "0x0",
        "input": "0xcdcb760a2e94c678ce4dcb661ca51ca345676199de7df177f94066c5769f008913cda94f000000000000000000000000000000000000000000000000000000000000004000000000000000000000000000000000000000000000000000000000000008e060a0604052348015600e575f5ffd5b506040516108a03803806108a0833981016040819052602b916068565b5f80546001600160a01b0319166001600160a01b03938416179055166080526094565b80516001600160a01b03811681146063575f5ffd5b919050565b5f5f604083850312156078575f5ffd5b607f83604e565b9150608b60208401604e565b90509250929050565b6080516107f46100ac5f395f61012201526107f45ff3fe608060405234801561000f575f5ffd5b5060043610610064575f3560e01c806387c445441161004d57806387c44544146100d1578063a6c3e6b91461011d578063d969fe0f146100d1575f5ffd5b806324c73dda146100685780636835f32c146100b1575b5f5ffd5b5f546100879073ffffffffffffffffffffffffffffffffffffffff1681565b60405173ffffffffffffffffffffffffffffffffffffffff90911681526020015b60405180910390f35b6100c46100bf3660046104c3565b610144565b6040516100a891906105b3565b6100e46100df3660046104c3565b610353565b6040805173ffffffffffffffffffffffffffffffffffffffff9095168552602085019390935291830152151560608201526080016100a8565b6100877f000000000000000000000000000000000000000000000000000000000000000081565b60605f5f5f5f5f5f8780602001905181019061016091906106cc565b955095509550955095509550825f036101a5576040517f5112ab1000000000000000000000000000000000000000000000000000000000815260040160405180910390fd5b73ffffffffffffffffffffffffffffffffffffffff861615806101dc575073ffffffffffffffffffffffffffffffffffffffff8416155b15610213576040517f0f58648f00000000000000000000000000000000000000000000000000000000815260040160405180910390fd5b60408051600180825281830190925290816020015b60408051606080820183525f808352602083015291810191909152815260200190600190039081610228579050506040805160608101825273ffffffffffffffffffffffffffffffffffffffff808a1682525f6020830152825189821660248201526044810188905290881660648201526084810186905284151560a4820152929950919082019060c401604080517fffffffffffffffffffffffffffffffffffffffffffffffffffffffffffffffe08184030181529190526020810180517bffffffffffffffffffffffffffffffffffffffffffffffffffffffff167f769f8e5d000000000000000000000000000000000000000000000000000000001790529052875188905f9061033d5761033d610740565b6020026020010181905250505050505050919050565b5f5f5f5f5f61036186610371565b90969095505f9450849350915050565b5f5f5f83806020019051810190610388919061076d565b50915091505f8273ffffffffffffffffffffffffffffffffffffffff166338d52e0f6040518163ffffffff1660e01b8152600401602060405180830381865afa1580156103d7573d5f5f3e3d5ffd5b505050506040513d601f19601f820116820180604052508101906103fb91906107ae565b6040517f70a0823100000000000000000000000000000000000000000000000000000000815273ffffffffffffffffffffffffffffffffffffffff8481166004830152919250908216906370a0823190602401602060405180830381865afa158015610469573d5f5f3e3d5ffd5b505050506040513d601f19601f8201168201806040525081019061048d91906107d0565b95945050505050565b7f4e487b71000000000000000000000000000000000000000000000000000000005f52604160045260245ffd5b5f602082840312156104d3575f5ffd5b813567ffffffffffffffff8111156104e9575f5ffd5b8201601f810184136104f9575f5ffd5b803567ffffffffffffffff81111561051357610513610496565b6040517fffffffffffffffffffffffffffffffffffffffffffffffffffffffffffffffe0603f7fffffffffffffffffffffffffffffffffffffffffffffffffffffffffffffffe0601f8501160116810181811067ffffffffffffffff8211171561057f5761057f610496565b604052818152828201602001861015610596575f5ffd5b816020840160208301375f91810160200191909152949350505050565b5f602082016020835280845180835260408501915060408160051b8601019250602086015f5b8281101561069c577fffffffffffffffffffffffffffffffffffffffffffffffffffffffffffffffc0878603018452815173ffffffffffffffffffffffffffffffffffffffff815116865260208101516020870152604081015190506060604087015280518060608801528060208301608089015e5f6080828901015260807fffffffffffffffffffffffffffffffffffffffffffffffffffffffffffffffe0601f830116880101965050506020820191506020840193506001810190506105d9565b50929695505050505050565b73ffffffffffffffffffffffffffffffffffffffff811681146106c9575f5ffd5b50565b5f5f5f5f5f5f60c087890312156106e1575f5ffd5b86516106ec816106a8565b60208801519096506106fd816106a8565b604088015190955061070e816106a8565b6060880151608089015160a08a015192965090945092508015158114610732575f5ffd5b809150509295509295509295565b7f4e487b71000000000000000000000000000000000000000000000000000000005f52603260045260245ffd5b5f5f5f6060848603121561077f575f5ffd5b835161078a816106a8565b602085015190935061079b816106a8565b6040949094015192959394509192915050565b5f602082840312156107be575f5ffd5b81516107c9816106a8565b9392505050565b5f602082840312156107e0575f5ffd5b505191905056fea164736f6c634300081c000a000000000000000000000000ce78ac97d73b0beab15df609235d9b0a34099704000000000000000000000000168910ea470113a07ec777769e76d9c8c80a402f",
        "nonce": "0x17",
        "chainId": "0xa4b1"
      },
      "additionalContracts": [
        {
          "transactionType": "CREATE2",
          "address": "0x82a4f761d0e5890b4d55fc22e25c27a37ead8f58",
          "initCode": "0x67363d3d37363d34f03d5260086018f3"
        },
        {
          "transactionType": "CREATE",
          "address": "0xa032968725f8658416376d0ae3aa24aa04d49f5e",
          "initCode": "0x60a0604052348015600e575f5ffd5b506040516108a03803806108a0833981016040819052602b916068565b5f80546001600160a01b0319166001600160a01b03938416179055166080526094565b80516001600160a01b03811681146063575f5ffd5b919050565b5f5f604083850312156078575f5ffd5b607f83604e565b9150608b60208401604e565b90509250929050565b6080516107f46100ac5f395f61012201526107f45ff3fe608060405234801561000f575f5ffd5b5060043610610064575f3560e01c806387c445441161004d57806387c44544146100d1578063a6c3e6b91461011d578063d969fe0f146100d1575f5ffd5b806324c73dda146100685780636835f32c146100b1575b5f5ffd5b5f546100879073ffffffffffffffffffffffffffffffffffffffff1681565b60405173ffffffffffffffffffffffffffffffffffffffff90911681526020015b60405180910390f35b6100c46100bf3660046104c3565b610144565b6040516100a891906105b3565b6100e46100df3660046104c3565b610353565b6040805173ffffffffffffffffffffffffffffffffffffffff9095168552602085019390935291830152151560608201526080016100a8565b6100877f000000000000000000000000000000000000000000000000000000000000000081565b60605f5f5f5f5f5f8780602001905181019061016091906106cc565b955095509550955095509550825f036101a5576040517f5112ab1000000000000000000000000000000000000000000000000000000000815260040160405180910390fd5b73ffffffffffffffffffffffffffffffffffffffff861615806101dc575073ffffffffffffffffffffffffffffffffffffffff8416155b15610213576040517f0f58648f00000000000000000000000000000000000000000000000000000000815260040160405180910390fd5b60408051600180825281830190925290816020015b60408051606080820183525f808352602083015291810191909152815260200190600190039081610228579050506040805160608101825273ffffffffffffffffffffffffffffffffffffffff808a1682525f6020830152825189821660248201526044810188905290881660648201526084810186905284151560a4820152929950919082019060c401604080517fffffffffffffffffffffffffffffffffffffffffffffffffffffffffffffffe08184030181529190526020810180517bffffffffffffffffffffffffffffffffffffffffffffffffffffffff167f769f8e5d000000000000000000000000000000000000000000000000000000001790529052875188905f9061033d5761033d610740565b6020026020010181905250505050505050919050565b5f5f5f5f5f61036186610371565b90969095505f9450849350915050565b5f5f5f83806020019051810190610388919061076d565b50915091505f8273ffffffffffffffffffffffffffffffffffffffff166338d52e0f6040518163ffffffff1660e01b8152600401602060405180830381865afa1580156103d7573d5f5f3e3d5ffd5b505050506040513d601f19601f820116820180604052508101906103fb91906107ae565b6040517f70a0823100000000000000000000000000000000000000000000000000000000815273ffffffffffffffffffffffffffffffffffffffff8481166004830152919250908216906370a0823190602401602060405180830381865afa158015610469573d5f5f3e3d5ffd5b505050506040513d601f19601f8201168201806040525081019061048d91906107d0565b95945050505050565b7f4e487b71000000000000000000000000000000000000000000000000000000005f52604160045260245ffd5b5f602082840312156104d3575f5ffd5b813567ffffffffffffffff8111156104e9575f5ffd5b8201601f810184136104f9575f5ffd5b803567ffffffffffffffff81111561051357610513610496565b6040517fffffffffffffffffffffffffffffffffffffffffffffffffffffffffffffffe0603f7fffffffffffffffffffffffffffffffffffffffffffffffffffffffffffffffe0601f8501160116810181811067ffffffffffffffff8211171561057f5761057f610496565b604052818152828201602001861015610596575f5ffd5b816020840160208301375f91810160200191909152949350505050565b5f602082016020835280845180835260408501915060408160051b8601019250602086015f5b8281101561069c577fffffffffffffffffffffffffffffffffffffffffffffffffffffffffffffffc0878603018452815173ffffffffffffffffffffffffffffffffffffffff815116865260208101516020870152604081015190506060604087015280518060608801528060208301608089015e5f6080828901015260807fffffffffffffffffffffffffffffffffffffffffffffffffffffffffffffffe0601f830116880101965050506020820191506020840193506001810190506105d9565b50929695505050505050565b73ffffffffffffffffffffffffffffffffffffffff811681146106c9575f5ffd5b50565b5f5f5f5f5f5f60c087890312156106e1575f5ffd5b86516106ec816106a8565b60208801519096506106fd816106a8565b604088015190955061070e816106a8565b6060880151608089015160a08a015192965090945092508015158114610732575f5ffd5b809150509295509295509295565b7f4e487b71000000000000000000000000000000000000000000000000000000005f52603260045260245ffd5b5f5f5f6060848603121561077f575f5ffd5b835161078a816106a8565b602085015190935061079b816106a8565b6040949094015192959394509192915050565b5f602082840312156107be575f5ffd5b81516107c9816106a8565b9392505050565b5f602082840312156107e0575f5ffd5b505191905056fea164736f6c634300081c000a000000000000000000000000ce78ac97d73b0beab15df609235d9b0a34099704000000000000000000000000168910ea470113a07ec777769e76d9c8c80a402f"
        }
      ],
      "isFixedGasLimit": false
    },
    {
      "hash": null,
      "transactionType": "CALL",
      "contractName": null,
      "contractAddress": "0x4b38341b1126f45614b26319787ca98aec1b6f57",
      "function": "deploy(bytes32,bytes)",
      "arguments": [
        "0xea2bfbe5dce0d7b5ce4214862f6335f6b68ce1566472f7f791817182a5b58535",
        "0x60a0604052348015600e575f5ffd5b506040516106aa3803806106aa833981016040819052602b916068565b5f80546001600160a01b0319166001600160a01b03938416179055166080526094565b80516001600160a01b03811681146063575f5ffd5b919050565b5f5f604083850312156078575f5ffd5b607f83604e565b9150608b60208401604e565b90509250929050565b6080516105fe6100ac5f395f61012801526105fe5ff3fe608060405234801561000f575f5ffd5b5060043610610064575f3560e01c806387c445441161004d57806387c44544146100d1578063a6c3e6b914610123578063d969fe0f146100d1575f5ffd5b806324c73dda146100685780636835f32c146100b1575b5f5ffd5b5f546100879073ffffffffffffffffffffffffffffffffffffffff1681565b60405173ffffffffffffffffffffffffffffffffffffffff90911681526020015b60405180910390f35b6100c46100bf36600461037e565b61014a565b6040516100a8919061046e565b6100ea6100df36600461037e565b505f90819081908190565b6040805173ffffffffffffffffffffffffffffffffffffffff9095168552602085019390935291830152151560608201526080016100a8565b6100877f000000000000000000000000000000000000000000000000000000000000000081565b60605f5f5f84806020019051810190610163919061058b565b925092509250805f036101a2576040517f5112ab1000000000000000000000000000000000000000000000000000000000815260040160405180910390fd5b73ffffffffffffffffffffffffffffffffffffffff831615806101d9575073ffffffffffffffffffffffffffffffffffffffff8216155b15610210576040517f0f58648f00000000000000000000000000000000000000000000000000000000815260040160405180910390fd5b60408051600180825281830190925290816020015b60408051606080820183525f80835260208301529181019190915281526020019060019003908161022557905050935060405180606001604052808473ffffffffffffffffffffffffffffffffffffffff1681526020015f815260200182846040516024016102b492919091825273ffffffffffffffffffffffffffffffffffffffff16602082015260400190565b604080517fffffffffffffffffffffffffffffffffffffffffffffffffffffffffffffffe08184030181529190526020810180517bffffffffffffffffffffffffffffffffffffffffffffffffffffffff167f29344f08000000000000000000000000000000000000000000000000000000001790529052845185905f9061033e5761033e6105c4565b6020026020010181905250505050919050565b7f4e487b71000000000000000000000000000000000000000000000000000000005f52604160045260245ffd5b5f6020828403121561038e575f5ffd5b813567ffffffffffffffff8111156103a4575f5ffd5b8201601f810184136103b4575f5ffd5b803567ffffffffffffffff8111156103ce576103ce610351565b6040517fffffffffffffffffffffffffffffffffffffffffffffffffffffffffffffffe0603f7fffffffffffffffffffffffffffffffffffffffffffffffffffffffffffffffe0601f8501160116810181811067ffffffffffffffff8211171561043a5761043a610351565b604052818152828201602001861015610451575f5ffd5b816020840160208301375f91810160200191909152949350505050565b5f602082016020835280845180835260408501915060408160051b8601019250602086015f5b82811015610557577fffffffffffffffffffffffffffffffffffffffffffffffffffffffffffffffc0878603018452815173ffffffffffffffffffffffffffffffffffffffff815116865260208101516020870152604081015190506060604087015280518060608801528060208301608089015e5f6080828901015260807fffffffffffffffffffffffffffffffffffffffffffffffffffffffffffffffe0601f83011688010196505050602082019150602084019350600181019050610494565b50929695505050505050565b805173ffffffffffffffffffffffffffffffffffffffff81168114610586575f5ffd5b919050565b5f5f5f6060848603121561059d575f5ffd5b6105a684610563565b92506105b460208501610563565b9150604084015190509250925092565b7f4e487b71000000000000000000000000000000000000000000000000000000005f52603260045260245ffdfea164736f6c634300081c000a000000000000000000000000ce78ac97d73b0beab15df609235d9b0a34099704000000000000000000000000168910ea470113a07ec777769e76d9c8c80a402f"
      ],
      "transaction": {
        "from": "0x168910ea470113a07ec777769e76d9c8c80a402f",
        "to": "0x4b38341b1126f45614b26319787ca98aec1b6f57",
        "gas": "0x205830",
        "value": "0x0",
        "input": "0xcdcb760aea2bfbe5dce0d7b5ce4214862f6335f6b68ce1566472f7f791817182a5b58535000000000000000000000000000000000000000000000000000000000000004000000000000000000000000000000000000000000000000000000000000006ea60a0604052348015600e575f5ffd5b506040516106aa3803806106aa833981016040819052602b916068565b5f80546001600160a01b0319166001600160a01b03938416179055166080526094565b80516001600160a01b03811681146063575f5ffd5b919050565b5f5f604083850312156078575f5ffd5b607f83604e565b9150608b60208401604e565b90509250929050565b6080516105fe6100ac5f395f61012801526105fe5ff3fe608060405234801561000f575f5ffd5b5060043610610064575f3560e01c806387c445441161004d57806387c44544146100d1578063a6c3e6b914610123578063d969fe0f146100d1575f5ffd5b806324c73dda146100685780636835f32c146100b1575b5f5ffd5b5f546100879073ffffffffffffffffffffffffffffffffffffffff1681565b60405173ffffffffffffffffffffffffffffffffffffffff90911681526020015b60405180910390f35b6100c46100bf36600461037e565b61014a565b6040516100a8919061046e565b6100ea6100df36600461037e565b505f90819081908190565b6040805173ffffffffffffffffffffffffffffffffffffffff9095168552602085019390935291830152151560608201526080016100a8565b6100877f000000000000000000000000000000000000000000000000000000000000000081565b60605f5f5f84806020019051810190610163919061058b565b925092509250805f036101a2576040517f5112ab1000000000000000000000000000000000000000000000000000000000815260040160405180910390fd5b73ffffffffffffffffffffffffffffffffffffffff831615806101d9575073ffffffffffffffffffffffffffffffffffffffff8216155b15610210576040517f0f58648f00000000000000000000000000000000000000000000000000000000815260040160405180910390fd5b60408051600180825281830190925290816020015b60408051606080820183525f80835260208301529181019190915281526020019060019003908161022557905050935060405180606001604052808473ffffffffffffffffffffffffffffffffffffffff1681526020015f815260200182846040516024016102b492919091825273ffffffffffffffffffffffffffffffffffffffff16602082015260400190565b604080517fffffffffffffffffffffffffffffffffffffffffffffffffffffffffffffffe08184030181529190526020810180517bffffffffffffffffffffffffffffffffffffffffffffffffffffffff167f29344f08000000000000000000000000000000000000000000000000000000001790529052845185905f9061033e5761033e6105c4565b6020026020010181905250505050919050565b7f4e487b71000000000000000000000000000000000000000000000000000000005f52604160045260245ffd5b5f6020828403121561038e575f5ffd5b813567ffffffffffffffff8111156103a4575f5ffd5b8201601f810184136103b4575f5ffd5b803567ffffffffffffffff8111156103ce576103ce610351565b6040517fffffffffffffffffffffffffffffffffffffffffffffffffffffffffffffffe0603f7fffffffffffffffffffffffffffffffffffffffffffffffffffffffffffffffe0601f8501160116810181811067ffffffffffffffff8211171561043a5761043a610351565b604052818152828201602001861015610451575f5ffd5b816020840160208301375f91810160200191909152949350505050565b5f602082016020835280845180835260408501915060408160051b8601019250602086015f5b82811015610557577fffffffffffffffffffffffffffffffffffffffffffffffffffffffffffffffc0878603018452815173ffffffffffffffffffffffffffffffffffffffff815116865260208101516020870152604081015190506060604087015280518060608801528060208301608089015e5f6080828901015260807fffffffffffffffffffffffffffffffffffffffffffffffffffffffffffffffe0601f83011688010196505050602082019150602084019350600181019050610494565b50929695505050505050565b805173ffffffffffffffffffffffffffffffffffffffff81168114610586575f5ffd5b919050565b5f5f5f6060848603121561059d575f5ffd5b6105a684610563565b92506105b460208501610563565b9150604084015190509250925092565b7f4e487b71000000000000000000000000000000000000000000000000000000005f52603260045260245ffdfea164736f6c634300081c000a000000000000000000000000ce78ac97d73b0beab15df609235d9b0a34099704000000000000000000000000168910ea470113a07ec777769e76d9c8c80a402f00000000000000000000000000000000000000000000",
        "nonce": "0x18",
        "chainId": "0xa4b1"
      },
      "additionalContracts": [
        {
          "transactionType": "CREATE2",
          "address": "0x1f526445b669f8775144850e0bb1e7058f7ff391",
          "initCode": "0x67363d3d37363d34f03d5260086018f3"
        },
        {
          "transactionType": "CREATE",
          "address": "0xa2f2c487051354dae59c48b0e5bec1e473e6dd21",
          "initCode": "0x60a0604052348015600e575f5ffd5b506040516106aa3803806106aa833981016040819052602b916068565b5f80546001600160a01b0319166001600160a01b03938416179055166080526094565b80516001600160a01b03811681146063575f5ffd5b919050565b5f5f604083850312156078575f5ffd5b607f83604e565b9150608b60208401604e565b90509250929050565b6080516105fe6100ac5f395f61012801526105fe5ff3fe608060405234801561000f575f5ffd5b5060043610610064575f3560e01c806387c445441161004d57806387c44544146100d1578063a6c3e6b914610123578063d969fe0f146100d1575f5ffd5b806324c73dda146100685780636835f32c146100b1575b5f5ffd5b5f546100879073ffffffffffffffffffffffffffffffffffffffff1681565b60405173ffffffffffffffffffffffffffffffffffffffff90911681526020015b60405180910390f35b6100c46100bf36600461037e565b61014a565b6040516100a8919061046e565b6100ea6100df36600461037e565b505f90819081908190565b6040805173ffffffffffffffffffffffffffffffffffffffff9095168552602085019390935291830152151560608201526080016100a8565b6100877f000000000000000000000000000000000000000000000000000000000000000081565b60605f5f5f84806020019051810190610163919061058b565b925092509250805f036101a2576040517f5112ab1000000000000000000000000000000000000000000000000000000000815260040160405180910390fd5b73ffffffffffffffffffffffffffffffffffffffff831615806101d9575073ffffffffffffffffffffffffffffffffffffffff8216155b15610210576040517f0f58648f00000000000000000000000000000000000000000000000000000000815260040160405180910390fd5b60408051600180825281830190925290816020015b60408051606080820183525f80835260208301529181019190915281526020019060019003908161022557905050935060405180606001604052808473ffffffffffffffffffffffffffffffffffffffff1681526020015f815260200182846040516024016102b492919091825273ffffffffffffffffffffffffffffffffffffffff16602082015260400190565b604080517fffffffffffffffffffffffffffffffffffffffffffffffffffffffffffffffe08184030181529190526020810180517bffffffffffffffffffffffffffffffffffffffffffffffffffffffff167f29344f08000000000000000000000000000000000000000000000000000000001790529052845185905f9061033e5761033e6105c4565b6020026020010181905250505050919050565b7f4e487b71000000000000000000000000000000000000000000000000000000005f52604160045260245ffd5b5f6020828403121561038e575f5ffd5b813567ffffffffffffffff8111156103a4575f5ffd5b8201601f810184136103b4575f5ffd5b803567ffffffffffffffff8111156103ce576103ce610351565b6040517fffffffffffffffffffffffffffffffffffffffffffffffffffffffffffffffe0603f7fffffffffffffffffffffffffffffffffffffffffffffffffffffffffffffffe0601f8501160116810181811067ffffffffffffffff8211171561043a5761043a610351565b604052818152828201602001861015610451575f5ffd5b816020840160208301375f91810160200191909152949350505050565b5f602082016020835280845180835260408501915060408160051b8601019250602086015f5b82811015610557577fffffffffffffffffffffffffffffffffffffffffffffffffffffffffffffffc0878603018452815173ffffffffffffffffffffffffffffffffffffffff815116865260208101516020870152604081015190506060604087015280518060608801528060208301608089015e5f6080828901015260807fffffffffffffffffffffffffffffffffffffffffffffffffffffffffffffffe0601f83011688010196505050602082019150602084019350600181019050610494565b50929695505050505050565b805173ffffffffffffffffffffffffffffffffffffffff81168114610586575f5ffd5b919050565b5f5f5f6060848603121561059d575f5ffd5b6105a684610563565b92506105b460208501610563565b9150604084015190509250925092565b7f4e487b71000000000000000000000000000000000000000000000000000000005f52603260045260245ffdfea164736f6c634300081c000a000000000000000000000000ce78ac97d73b0beab15df609235d9b0a34099704000000000000000000000000168910ea470113a07ec777769e76d9c8c80a402f"
        }
      ],
      "isFixedGasLimit": false
    },
    {
      "hash": null,
      "transactionType": "CALL",
      "contractName": null,
      "contractAddress": "0x4b38341b1126f45614b26319787ca98aec1b6f57",
      "function": "deploy(bytes32,bytes)",
      "arguments": [
        "0xfe2084e444e53512f13cb5d1190611231c9440d57582b2af631e3625aea72b0d",
        "0x60a0604052348015600e575f5ffd5b506040516106aa3803806106aa833981016040819052602b916068565b5f80546001600160a01b0319166001600160a01b03938416179055166080526094565b80516001600160a01b03811681146063575f5ffd5b919050565b5f5f604083850312156078575f5ffd5b607f83604e565b9150608b60208401604e565b90509250929050565b6080516105fe6100ac5f395f61012801526105fe5ff3fe608060405234801561000f575f5ffd5b5060043610610064575f3560e01c806387c445441161004d57806387c44544146100d1578063a6c3e6b914610123578063d969fe0f146100d1575f5ffd5b806324c73dda146100685780636835f32c146100b1575b5f5ffd5b5f546100879073ffffffffffffffffffffffffffffffffffffffff1681565b60405173ffffffffffffffffffffffffffffffffffffffff90911681526020015b60405180910390f35b6100c46100bf36600461036f565b61014a565b6040516100a8919061045f565b6100ea6100df36600461036f565b505f90819081908190565b6040805173ffffffffffffffffffffffffffffffffffffffff9095168552602085019390935291830152151560608201526080016100a8565b6100877f000000000000000000000000000000000000000000000000000000000000000081565b60605f5f5f5f85806020019051810190610164919061057c565b9350935093509350805f036101a5576040517f5112ab1000000000000000000000000000000000000000000000000000000000815260040160405180910390fd5b73ffffffffffffffffffffffffffffffffffffffff841615806101dc575073ffffffffffffffffffffffffffffffffffffffff8216155b15610213576040517f0f58648f00000000000000000000000000000000000000000000000000000000815260040160405180910390fd5b60408051600180825281830190925290816020015b60408051606080820183525f808352602083015291810191909152815260200190600190039081610228579050506040805160608101825273ffffffffffffffffffffffffffffffffffffffff80881682525f6020830152825160248101869052878216604482015290861660648201529297509190820190608401604080517fffffffffffffffffffffffffffffffffffffffffffffffffffffffffffffffe08184030181529190526020810180517bffffffffffffffffffffffffffffffffffffffffffffffffffffffff167f7d41c86e000000000000000000000000000000000000000000000000000000001790529052855186905f9061032e5761032e6105c4565b602002602001018190525050505050919050565b7f4e487b71000000000000000000000000000000000000000000000000000000005f52604160045260245ffd5b5f6020828403121561037f575f5ffd5b813567ffffffffffffffff811115610395575f5ffd5b8201601f810184136103a5575f5ffd5b803567ffffffffffffffff8111156103bf576103bf610342565b6040517fffffffffffffffffffffffffffffffffffffffffffffffffffffffffffffffe0603f7fffffffffffffffffffffffffffffffffffffffffffffffffffffffffffffffe0601f8501160116810181811067ffffffffffffffff8211171561042b5761042b610342565b604052818152828201602001861015610442575f5ffd5b816020840160208301375f91810160200191909152949350505050565b5f602082016020835280845180835260408501915060408160051b8601019250602086015f5b82811015610548577fffffffffffffffffffffffffffffffffffffffffffffffffffffffffffffffc0878603018452815173ffffffffffffffffffffffffffffffffffffffff815116865260208101516020870152604081015190506060604087015280518060608801528060208301608089015e5f6080828901015260807fffffffffffffffffffffffffffffffffffffffffffffffffffffffffffffffe0601f83011688010196505050602082019150602084019350600181019050610485565b50929695505050505050565b805173ffffffffffffffffffffffffffffffffffffffff81168114610577575f5ffd5b919050565b5f5f5f5f6080858703121561058f575f5ffd5b61059885610554565b93506105a660208601610554565b92506105b460408601610554565b6060959095015193969295505050565b7f4e487b71000000000000000000000000000000000000000000000000000000005f52603260045260245ffdfea164736f6c634300081c000a000000000000000000000000ce78ac97d73b0beab15df609235d9b0a34099704000000000000000000000000168910ea470113a07ec777769e76d9c8c80a402f"
      ],
      "transaction": {
        "from": "0x168910ea470113a07ec777769e76d9c8c80a402f",
        "to": "0x4b38341b1126f45614b26319787ca98aec1b6f57",
        "gas": "0x20a678",
        "value": "0x0",
        "input": "0xcdcb760afe2084e444e53512f13cb5d1190611231c9440d57582b2af631e3625aea72b0d000000000000000000000000000000000000000000000000000000000000004000000000000000000000000000000000000000000000000000000000000006ea60a0604052348015600e575f5ffd5b506040516106aa3803806106aa833981016040819052602b916068565b5f80546001600160a01b0319166001600160a01b03938416179055166080526094565b80516001600160a01b03811681146063575f5ffd5b919050565b5f5f604083850312156078575f5ffd5b607f83604e565b9150608b60208401604e565b90509250929050565b6080516105fe6100ac5f395f61012801526105fe5ff3fe608060405234801561000f575f5ffd5b5060043610610064575f3560e01c806387c445441161004d57806387c44544146100d1578063a6c3e6b914610123578063d969fe0f146100d1575f5ffd5b806324c73dda146100685780636835f32c146100b1575b5f5ffd5b5f546100879073ffffffffffffffffffffffffffffffffffffffff1681565b60405173ffffffffffffffffffffffffffffffffffffffff90911681526020015b60405180910390f35b6100c46100bf36600461036f565b61014a565b6040516100a8919061045f565b6100ea6100df36600461036f565b505f90819081908190565b6040805173ffffffffffffffffffffffffffffffffffffffff9095168552602085019390935291830152151560608201526080016100a8565b6100877f000000000000000000000000000000000000000000000000000000000000000081565b60605f5f5f5f85806020019051810190610164919061057c565b9350935093509350805f036101a5576040517f5112ab1000000000000000000000000000000000000000000000000000000000815260040160405180910390fd5b73ffffffffffffffffffffffffffffffffffffffff841615806101dc575073ffffffffffffffffffffffffffffffffffffffff8216155b15610213576040517f0f58648f00000000000000000000000000000000000000000000000000000000815260040160405180910390fd5b60408051600180825281830190925290816020015b60408051606080820183525f808352602083015291810191909152815260200190600190039081610228579050506040805160608101825273ffffffffffffffffffffffffffffffffffffffff80881682525f6020830152825160248101869052878216604482015290861660648201529297509190820190608401604080517fffffffffffffffffffffffffffffffffffffffffffffffffffffffffffffffe08184030181529190526020810180517bffffffffffffffffffffffffffffffffffffffffffffffffffffffff167f7d41c86e000000000000000000000000000000000000000000000000000000001790529052855186905f9061032e5761032e6105c4565b602002602001018190525050505050919050565b7f4e487b71000000000000000000000000000000000000000000000000000000005f52604160045260245ffd5b5f6020828403121561037f575f5ffd5b813567ffffffffffffffff811115610395575f5ffd5b8201601f810184136103a5575f5ffd5b803567ffffffffffffffff8111156103bf576103bf610342565b6040517fffffffffffffffffffffffffffffffffffffffffffffffffffffffffffffffe0603f7fffffffffffffffffffffffffffffffffffffffffffffffffffffffffffffffe0601f8501160116810181811067ffffffffffffffff8211171561042b5761042b610342565b604052818152828201602001861015610442575f5ffd5b816020840160208301375f91810160200191909152949350505050565b5f602082016020835280845180835260408501915060408160051b8601019250602086015f5b82811015610548577fffffffffffffffffffffffffffffffffffffffffffffffffffffffffffffffc0878603018452815173ffffffffffffffffffffffffffffffffffffffff815116865260208101516020870152604081015190506060604087015280518060608801528060208301608089015e5f6080828901015260807fffffffffffffffffffffffffffffffffffffffffffffffffffffffffffffffe0601f83011688010196505050602082019150602084019350600181019050610485565b50929695505050505050565b805173ffffffffffffffffffffffffffffffffffffffff81168114610577575f5ffd5b919050565b5f5f5f5f6080858703121561058f575f5ffd5b61059885610554565b93506105a660208601610554565b92506105b460408601610554565b6060959095015193969295505050565b7f4e487b71000000000000000000000000000000000000000000000000000000005f52603260045260245ffdfea164736f6c634300081c000a000000000000000000000000ce78ac97d73b0beab15df609235d9b0a34099704000000000000000000000000168910ea470113a07ec777769e76d9c8c80a402f00000000000000000000000000000000000000000000",
        "nonce": "0x19",
        "chainId": "0xa4b1"
      },
      "additionalContracts": [
        {
          "transactionType": "CREATE2",
          "address": "0xacb75ab96da9ee64049feb4cba30e43f89c28b36",
          "initCode": "0x67363d3d37363d34f03d5260086018f3"
        },
        {
          "transactionType": "CREATE",
          "address": "0x4e7e590adf740773a3d42cb584a0099c7cf11820",
          "initCode": "0x60a0604052348015600e575f5ffd5b506040516106aa3803806106aa833981016040819052602b916068565b5f80546001600160a01b0319166001600160a01b03938416179055166080526094565b80516001600160a01b03811681146063575f5ffd5b919050565b5f5f604083850312156078575f5ffd5b607f83604e565b9150608b60208401604e565b90509250929050565b6080516105fe6100ac5f395f61012801526105fe5ff3fe608060405234801561000f575f5ffd5b5060043610610064575f3560e01c806387c445441161004d57806387c44544146100d1578063a6c3e6b914610123578063d969fe0f146100d1575f5ffd5b806324c73dda146100685780636835f32c146100b1575b5f5ffd5b5f546100879073ffffffffffffffffffffffffffffffffffffffff1681565b60405173ffffffffffffffffffffffffffffffffffffffff90911681526020015b60405180910390f35b6100c46100bf36600461036f565b61014a565b6040516100a8919061045f565b6100ea6100df36600461036f565b505f90819081908190565b6040805173ffffffffffffffffffffffffffffffffffffffff9095168552602085019390935291830152151560608201526080016100a8565b6100877f000000000000000000000000000000000000000000000000000000000000000081565b60605f5f5f5f85806020019051810190610164919061057c565b9350935093509350805f036101a5576040517f5112ab1000000000000000000000000000000000000000000000000000000000815260040160405180910390fd5b73ffffffffffffffffffffffffffffffffffffffff841615806101dc575073ffffffffffffffffffffffffffffffffffffffff8216155b15610213576040517f0f58648f00000000000000000000000000000000000000000000000000000000815260040160405180910390fd5b60408051600180825281830190925290816020015b60408051606080820183525f808352602083015291810191909152815260200190600190039081610228579050506040805160608101825273ffffffffffffffffffffffffffffffffffffffff80881682525f6020830152825160248101869052878216604482015290861660648201529297509190820190608401604080517fffffffffffffffffffffffffffffffffffffffffffffffffffffffffffffffe08184030181529190526020810180517bffffffffffffffffffffffffffffffffffffffffffffffffffffffff167f7d41c86e000000000000000000000000000000000000000000000000000000001790529052855186905f9061032e5761032e6105c4565b602002602001018190525050505050919050565b7f4e487b71000000000000000000000000000000000000000000000000000000005f52604160045260245ffd5b5f6020828403121561037f575f5ffd5b813567ffffffffffffffff811115610395575f5ffd5b8201601f810184136103a5575f5ffd5b803567ffffffffffffffff8111156103bf576103bf610342565b6040517fffffffffffffffffffffffffffffffffffffffffffffffffffffffffffffffe0603f7fffffffffffffffffffffffffffffffffffffffffffffffffffffffffffffffe0601f8501160116810181811067ffffffffffffffff8211171561042b5761042b610342565b604052818152828201602001861015610442575f5ffd5b816020840160208301375f91810160200191909152949350505050565b5f602082016020835280845180835260408501915060408160051b8601019250602086015f5b82811015610548577fffffffffffffffffffffffffffffffffffffffffffffffffffffffffffffffc0878603018452815173ffffffffffffffffffffffffffffffffffffffff815116865260208101516020870152604081015190506060604087015280518060608801528060208301608089015e5f6080828901015260807fffffffffffffffffffffffffffffffffffffffffffffffffffffffffffffffe0601f83011688010196505050602082019150602084019350600181019050610485565b50929695505050505050565b805173ffffffffffffffffffffffffffffffffffffffff81168114610577575f5ffd5b919050565b5f5f5f5f6080858703121561058f575f5ffd5b61059885610554565b93506105a660208601610554565b92506105b460408601610554565b6060959095015193969295505050565b7f4e487b71000000000000000000000000000000000000000000000000000000005f52603260045260245ffdfea164736f6c634300081c000a000000000000000000000000ce78ac97d73b0beab15df609235d9b0a34099704000000000000000000000000168910ea470113a07ec777769e76d9c8c80a402f"
        }
      ],
      "isFixedGasLimit": false
    },
    {
      "hash": null,
      "transactionType": "CALL",
      "contractName": null,
      "contractAddress": "0x4b38341b1126f45614b26319787ca98aec1b6f57",
      "function": "deploy(bytes32,bytes)",
      "arguments": [
        "0x1dcc389c13b2f65b8268ed6772a5178cd78f9234b73e544879ee30a54e9ae346",
        "0x6080604052348015600e575f5ffd5b506108cc8061001c5f395ff3fe608060405234801561000f575f5ffd5b506004361061004a575f3560e01c80631ae06be11461004e5780633f55350f146100775780638e64c0c7146100ca578063b289b18b146100ea575b5f5ffd5b61006161005c366004610522565b61010b565b60405161006e9190610571565b60405180910390f35b6100bd6100853660046105b3565b5060408051808201909152600381527f3078300000000000000000000000000000000000000000000000000000000000602082015290565b60405161006e919061061a565b6100dd6100d836600461062c565b61011e565b60405161006e9190610666565b6100fd6100f83660046105b3565b610174565b60405190815260200161006e565b60606101178383610184565b9392505050565b6060815167ffffffffffffffff81111561013a5761013a610400565b60405190808252806020026020018201604052801561016d57816020015b60608152602001906001900390816101585790505b5092915050565b5f61017e82610308565b92915050565b6060825167ffffffffffffffff8111156101a0576101a0610400565b6040519080825280602002602001820160405280156101c9578160200160208202803683370190505b5090505f5b835181101561016d578273ffffffffffffffffffffffffffffffffffffffff16848281518110610200576102006106e7565b602002602001015173ffffffffffffffffffffffffffffffffffffffff166338d52e0f6040518163ffffffff1660e01b8152600401602060405180830381865afa158015610250573d5f5f3e3d5ffd5b505050506040513d601f19601f820116820180604052508101906102749190610714565b73ffffffffffffffffffffffffffffffffffffffff16146102c1576040517f436a1e3200000000000000000000000000000000000000000000000000000000815260040160405180910390fd5b6102e38482815181106102d6576102d66106e7565b6020026020010151610308565b8282815181106102f5576102f56106e7565b60209081029190910101526001016101ce565b5f5f8273ffffffffffffffffffffffffffffffffffffffff1663313ce5676040518163ffffffff1660e01b8152600401602060405180830381865afa158015610353573d5f5f3e3d5ffd5b505050506040513d601f19601f82011682018060405250810190610377919061072f565b60ff16905073ffffffffffffffffffffffffffffffffffffffff8316634cdad5066103a383600a61089d565b6040518263ffffffff1660e01b81526004016103c191815260200190565b602060405180830381865afa1580156103dc573d5f5f3e3d5ffd5b505050506040513d601f19601f8201168201806040525081019061011791906108a8565b7f4e487b71000000000000000000000000000000000000000000000000000000005f52604160045260245ffd5b73ffffffffffffffffffffffffffffffffffffffff8116811461044e575f5ffd5b50565b803561045c8161042d565b919050565b5f82601f830112610470575f5ffd5b813567ffffffffffffffff81111561048a5761048a610400565b8060051b6040517fffffffffffffffffffffffffffffffffffffffffffffffffffffffffffffffe0603f830116810181811067ffffffffffffffff821117156104d5576104d5610400565b6040529182526020818501810192908101868411156104f2575f5ffd5b6020860192505b838310156105185761050a83610451565b8152602092830192016104f9565b5095945050505050565b5f5f60408385031215610533575f5ffd5b823567ffffffffffffffff811115610549575f5ffd5b61055585828601610461565b92505060208301356105668161042d565b809150509250929050565b602080825282518282018190525f918401906040840190835b818110156105a857835183526020938401939092019160010161058a565b509095945050505050565b5f602082840312156105c3575f5ffd5b81356101178161042d565b5f81518084528060208401602086015e5f6020828601015260207fffffffffffffffffffffffffffffffffffffffffffffffffffffffffffffffe0601f83011685010191505092915050565b602081525f61011760208301846105ce565b5f6020828403121561063c575f5ffd5b813567ffffffffffffffff811115610652575f5ffd5b61065e84828501610461565b949350505050565b5f602082016020835280845180835260408501915060408160051b8601019250602086015f5b828110156106db577fffffffffffffffffffffffffffffffffffffffffffffffffffffffffffffffc08786030184526106c68583516105ce565b9450602093840193919091019060010161068c565b50929695505050505050565b7f4e487b71000000000000000000000000000000000000000000000000000000005f52603260045260245ffd5b5f60208284031215610724575f5ffd5b81516101178161042d565b5f6020828403121561073f575f5ffd5b815160ff81168114610117575f5ffd5b7f4e487b71000000000000000000000000000000000000000000000000000000005f52601160045260245ffd5b6001815b60018411156107b75780850481111561079b5761079b61074f565b60018416156107a957908102905b60019390931c928002610780565b935093915050565b5f826107cd5750600161017e565b816107d957505f61017e565b81600181146107ef57600281146107f957610815565b600191505061017e565b60ff84111561080a5761080a61074f565b50506001821b61017e565b5060208310610133831016604e8410600b8410161715610838575081810a61017e565b6108637fffffffffffffffffffffffffffffffffffffffffffffffffffffffffffffffff848461077c565b807fffffffffffffffffffffffffffffffffffffffffffffffffffffffffffffffff048211156108955761089561074f565b029392505050565b5f61011783836107bf565b5f602082840312156108b8575f5ffd5b505191905056fea164736f6c634300081c000a"
      ],
      "transaction": {
        "from": "0x168910ea470113a07ec777769e76d9c8c80a402f",
        "to": "0x4b38341b1126f45614b26319787ca98aec1b6f57",
        "gas": "0x2800cb",
        "value": "0x0",
        "input": "0xcdcb760a1dcc389c13b2f65b8268ed6772a5178cd78f9234b73e544879ee30a54e9ae346000000000000000000000000000000000000000000000000000000000000004000000000000000000000000000000000000000000000000000000000000008e86080604052348015600e575f5ffd5b506108cc8061001c5f395ff3fe608060405234801561000f575f5ffd5b506004361061004a575f3560e01c80631ae06be11461004e5780633f55350f146100775780638e64c0c7146100ca578063b289b18b146100ea575b5f5ffd5b61006161005c366004610522565b61010b565b60405161006e9190610571565b60405180910390f35b6100bd6100853660046105b3565b5060408051808201909152600381527f3078300000000000000000000000000000000000000000000000000000000000602082015290565b60405161006e919061061a565b6100dd6100d836600461062c565b61011e565b60405161006e9190610666565b6100fd6100f83660046105b3565b610174565b60405190815260200161006e565b60606101178383610184565b9392505050565b6060815167ffffffffffffffff81111561013a5761013a610400565b60405190808252806020026020018201604052801561016d57816020015b60608152602001906001900390816101585790505b5092915050565b5f61017e82610308565b92915050565b6060825167ffffffffffffffff8111156101a0576101a0610400565b6040519080825280602002602001820160405280156101c9578160200160208202803683370190505b5090505f5b835181101561016d578273ffffffffffffffffffffffffffffffffffffffff16848281518110610200576102006106e7565b602002602001015173ffffffffffffffffffffffffffffffffffffffff166338d52e0f6040518163ffffffff1660e01b8152600401602060405180830381865afa158015610250573d5f5f3e3d5ffd5b505050506040513d601f19601f820116820180604052508101906102749190610714565b73ffffffffffffffffffffffffffffffffffffffff16146102c1576040517f436a1e3200000000000000000000000000000000000000000000000000000000815260040160405180910390fd5b6102e38482815181106102d6576102d66106e7565b6020026020010151610308565b8282815181106102f5576102f56106e7565b60209081029190910101526001016101ce565b5f5f8273ffffffffffffffffffffffffffffffffffffffff1663313ce5676040518163ffffffff1660e01b8152600401602060405180830381865afa158015610353573d5f5f3e3d5ffd5b505050506040513d601f19601f82011682018060405250810190610377919061072f565b60ff16905073ffffffffffffffffffffffffffffffffffffffff8316634cdad5066103a383600a61089d565b6040518263ffffffff1660e01b81526004016103c191815260200190565b602060405180830381865afa1580156103dc573d5f5f3e3d5ffd5b505050506040513d601f19601f8201168201806040525081019061011791906108a8565b7f4e487b71000000000000000000000000000000000000000000000000000000005f52604160045260245ffd5b73ffffffffffffffffffffffffffffffffffffffff8116811461044e575f5ffd5b50565b803561045c8161042d565b919050565b5f82601f830112610470575f5ffd5b813567ffffffffffffffff81111561048a5761048a610400565b8060051b6040517fffffffffffffffffffffffffffffffffffffffffffffffffffffffffffffffe0603f830116810181811067ffffffffffffffff821117156104d5576104d5610400565b6040529182526020818501810192908101868411156104f2575f5ffd5b6020860192505b838310156105185761050a83610451565b8152602092830192016104f9565b5095945050505050565b5f5f60408385031215610533575f5ffd5b823567ffffffffffffffff811115610549575f5ffd5b61055585828601610461565b92505060208301356105668161042d565b809150509250929050565b602080825282518282018190525f918401906040840190835b818110156105a857835183526020938401939092019160010161058a565b509095945050505050565b5f602082840312156105c3575f5ffd5b81356101178161042d565b5f81518084528060208401602086015e5f6020828601015260207fffffffffffffffffffffffffffffffffffffffffffffffffffffffffffffffe0601f83011685010191505092915050565b602081525f61011760208301846105ce565b5f6020828403121561063c575f5ffd5b813567ffffffffffffffff811115610652575f5ffd5b61065e84828501610461565b949350505050565b5f602082016020835280845180835260408501915060408160051b8601019250602086015f5b828110156106db577fffffffffffffffffffffffffffffffffffffffffffffffffffffffffffffffc08786030184526106c68583516105ce565b9450602093840193919091019060010161068c565b50929695505050505050565b7f4e487b71000000000000000000000000000000000000000000000000000000005f52603260045260245ffd5b5f60208284031215610724575f5ffd5b81516101178161042d565b5f6020828403121561073f575f5ffd5b815160ff81168114610117575f5ffd5b7f4e487b71000000000000000000000000000000000000000000000000000000005f52601160045260245ffd5b6001815b60018411156107b75780850481111561079b5761079b61074f565b60018416156107a957908102905b60019390931c928002610780565b935093915050565b5f826107cd5750600161017e565b816107d957505f61017e565b81600181146107ef57600281146107f957610815565b600191505061017e565b60ff84111561080a5761080a61074f565b50506001821b61017e565b5060208310610133831016604e8410600b8410161715610838575081810a61017e565b6108637fffffffffffffffffffffffffffffffffffffffffffffffffffffffffffffffff848461077c565b807fffffffffffffffffffffffffffffffffffffffffffffffffffffffffffffffff048211156108955761089561074f565b029392505050565b5f61011783836107bf565b5f602082840312156108b8575f5ffd5b505191905056fea164736f6c634300081c000a000000000000000000000000000000000000000000000000",
        "nonce": "0x1a",
        "chainId": "0xa4b1"
      },
      "additionalContracts": [
        {
          "transactionType": "CREATE2",
          "address": "0x51ea3e06af420bdbf107f66b8d9ff33910d54c0f",
          "initCode": "0x67363d3d37363d34f03d5260086018f3"
        },
        {
          "transactionType": "CREATE",
          "address": "0x0591c6f34bf130a72cc4d7f7d15d0f2f4a288ab1",
          "initCode": "0x6080604052348015600e575f5ffd5b506108cc8061001c5f395ff3fe608060405234801561000f575f5ffd5b506004361061004a575f3560e01c80631ae06be11461004e5780633f55350f146100775780638e64c0c7146100ca578063b289b18b146100ea575b5f5ffd5b61006161005c366004610522565b61010b565b60405161006e9190610571565b60405180910390f35b6100bd6100853660046105b3565b5060408051808201909152600381527f3078300000000000000000000000000000000000000000000000000000000000602082015290565b60405161006e919061061a565b6100dd6100d836600461062c565b61011e565b60405161006e9190610666565b6100fd6100f83660046105b3565b610174565b60405190815260200161006e565b60606101178383610184565b9392505050565b6060815167ffffffffffffffff81111561013a5761013a610400565b60405190808252806020026020018201604052801561016d57816020015b60608152602001906001900390816101585790505b5092915050565b5f61017e82610308565b92915050565b6060825167ffffffffffffffff8111156101a0576101a0610400565b6040519080825280602002602001820160405280156101c9578160200160208202803683370190505b5090505f5b835181101561016d578273ffffffffffffffffffffffffffffffffffffffff16848281518110610200576102006106e7565b602002602001015173ffffffffffffffffffffffffffffffffffffffff166338d52e0f6040518163ffffffff1660e01b8152600401602060405180830381865afa158015610250573d5f5f3e3d5ffd5b505050506040513d601f19601f820116820180604052508101906102749190610714565b73ffffffffffffffffffffffffffffffffffffffff16146102c1576040517f436a1e3200000000000000000000000000000000000000000000000000000000815260040160405180910390fd5b6102e38482815181106102d6576102d66106e7565b6020026020010151610308565b8282815181106102f5576102f56106e7565b60209081029190910101526001016101ce565b5f5f8273ffffffffffffffffffffffffffffffffffffffff1663313ce5676040518163ffffffff1660e01b8152600401602060405180830381865afa158015610353573d5f5f3e3d5ffd5b505050506040513d601f19601f82011682018060405250810190610377919061072f565b60ff16905073ffffffffffffffffffffffffffffffffffffffff8316634cdad5066103a383600a61089d565b6040518263ffffffff1660e01b81526004016103c191815260200190565b602060405180830381865afa1580156103dc573d5f5f3e3d5ffd5b505050506040513d601f19601f8201168201806040525081019061011791906108a8565b7f4e487b71000000000000000000000000000000000000000000000000000000005f52604160045260245ffd5b73ffffffffffffffffffffffffffffffffffffffff8116811461044e575f5ffd5b50565b803561045c8161042d565b919050565b5f82601f830112610470575f5ffd5b813567ffffffffffffffff81111561048a5761048a610400565b8060051b6040517fffffffffffffffffffffffffffffffffffffffffffffffffffffffffffffffe0603f830116810181811067ffffffffffffffff821117156104d5576104d5610400565b6040529182526020818501810192908101868411156104f2575f5ffd5b6020860192505b838310156105185761050a83610451565b8152602092830192016104f9565b5095945050505050565b5f5f60408385031215610533575f5ffd5b823567ffffffffffffffff811115610549575f5ffd5b61055585828601610461565b92505060208301356105668161042d565b809150509250929050565b602080825282518282018190525f918401906040840190835b818110156105a857835183526020938401939092019160010161058a565b509095945050505050565b5f602082840312156105c3575f5ffd5b81356101178161042d565b5f81518084528060208401602086015e5f6020828601015260207fffffffffffffffffffffffffffffffffffffffffffffffffffffffffffffffe0601f83011685010191505092915050565b602081525f61011760208301846105ce565b5f6020828403121561063c575f5ffd5b813567ffffffffffffffff811115610652575f5ffd5b61065e84828501610461565b949350505050565b5f602082016020835280845180835260408501915060408160051b8601019250602086015f5b828110156106db577fffffffffffffffffffffffffffffffffffffffffffffffffffffffffffffffc08786030184526106c68583516105ce565b9450602093840193919091019060010161068c565b50929695505050505050565b7f4e487b71000000000000000000000000000000000000000000000000000000005f52603260045260245ffd5b5f60208284031215610724575f5ffd5b81516101178161042d565b5f6020828403121561073f575f5ffd5b815160ff81168114610117575f5ffd5b7f4e487b71000000000000000000000000000000000000000000000000000000005f52601160045260245ffd5b6001815b60018411156107b75780850481111561079b5761079b61074f565b60018416156107a957908102905b60019390931c928002610780565b935093915050565b5f826107cd5750600161017e565b816107d957505f61017e565b81600181146107ef57600281146107f957610815565b600191505061017e565b60ff84111561080a5761080a61074f565b50506001821b61017e565b5060208310610133831016604e8410600b8410161715610838575081810a61017e565b6108637fffffffffffffffffffffffffffffffffffffffffffffffffffffffffffffffff848461077c565b807fffffffffffffffffffffffffffffffffffffffffffffffffffffffffffffffff048211156108955761089561074f565b029392505050565b5f61011783836107bf565b5f602082840312156108b8575f5ffd5b505191905056fea164736f6c634300081c000a"
        }
      ],
      "isFixedGasLimit": false
    },
    {
      "hash": null,
      "transactionType": "CALL",
      "contractName": null,
      "contractAddress": "0x4b38341b1126f45614b26319787ca98aec1b6f57",
      "function": "deploy(bytes32,bytes)",
      "arguments": [
        "0xb425cc0ddd1615edea21608182b3788272882a97c8cb598d925b7b881e49f8fd",
        "0x6080604052348015600e575f5ffd5b506108988061001c5f395ff3fe608060405234801561000f575f5ffd5b506004361061004a575f3560e01c80632e4874201461004e5780633a10b4b3146100745780633f55350f146100945780638e64c0c7146100e7575b5f5ffd5b61006161005c36600461039f565b610107565b6040519081526020015b60405180910390f35b6100876100823660046104c4565b610119565b60405161006b9190610529565b6100da6100a236600461056b565b5060408051808201909152600381527f3078300000000000000000000000000000000000000000000000000000000000602082015290565b60405161006b91906105d2565b6100fa6100f53660046105e4565b610125565b60405161006b9190610616565b5f610112838361017b565b9392505050565b606061011282846102ae565b6060815167ffffffffffffffff811115610141576101416103d6565b60405190808252806020026020018201604052801561017457816020015b606081526020019060019003908161015f5790505b5092915050565b5f5f8373ffffffffffffffffffffffffffffffffffffffff1663a40bee506040518163ffffffff1660e01b8152600401606060405180830381865afa1580156101c6573d5f5f3e3d5ffd5b505050506040513d601f19601f820116820180604052508101906101ea9190610697565b9250505073ffffffffffffffffffffffffffffffffffffffff841663cbe52ae38461021684600a610839565b6040517fffffffff0000000000000000000000000000000000000000000000000000000060e085901b16815273ffffffffffffffffffffffffffffffffffffffff90921660048301526024820152604401602060405180830381865afa158015610282573d5f5f3e3d5ffd5b505050506040513d601f19601f820116820180604052508101906102a69190610847565b949350505050565b81516060908067ffffffffffffffff8111156102cc576102cc6103d6565b6040519080825280602002602001820160405280156102f5578160200160208202803683370190505b5091505f5b818110156103635761033e8582815181106103175761031761085e565b60200260200101518583815181106103315761033161085e565b602002602001015161017b565b8382815181106103505761035061085e565b60209081029190910101526001016102fa565b505092915050565b73ffffffffffffffffffffffffffffffffffffffff8116811461038c575f5ffd5b50565b803561039a8161036b565b919050565b5f5f604083850312156103b0575f5ffd5b82356103bb8161036b565b915060208301356103cb8161036b565b809150509250929050565b7f4e487b71000000000000000000000000000000000000000000000000000000005f52604160045260245ffd5b5f82601f830112610412575f5ffd5b813567ffffffffffffffff81111561042c5761042c6103d6565b8060051b6040517fffffffffffffffffffffffffffffffffffffffffffffffffffffffffffffffe0603f830116810181811067ffffffffffffffff82111715610477576104776103d6565b604052918252602081850181019290810186841115610494575f5ffd5b6020860192505b838310156104ba576104ac8361038f565b81526020928301920161049b565b5095945050505050565b5f5f604083850312156104d5575f5ffd5b823567ffffffffffffffff8111156104eb575f5ffd5b6104f785828601610403565b925050602083013567ffffffffffffffff811115610513575f5ffd5b61051f85828601610403565b9150509250929050565b602080825282518282018190525f918401906040840190835b81811015610560578351835260209384019390920191600101610542565b509095945050505050565b5f6020828403121561057b575f5ffd5b81356101128161036b565b5f81518084528060208401602086015e5f6020828601015260207fffffffffffffffffffffffffffffffffffffffffffffffffffffffffffffffe0601f83011685010191505092915050565b602081525f6101126020830184610586565b5f602082840312156105f4575f5ffd5b813567ffffffffffffffff81111561060a575f5ffd5b6102a684828501610403565b5f602082016020835280845180835260408501915060408160051b8601019250602086015f5b8281101561068b577fffffffffffffffffffffffffffffffffffffffffffffffffffffffffffffffc0878603018452610676858351610586565b9450602093840193919091019060010161063c565b50929695505050505050565b5f5f5f606084860312156106a9575f5ffd5b8351600281106106b7575f5ffd5b60208501519093506106c88161036b565b604085015190925060ff811681146106de575f5ffd5b809150509250925092565b7f4e487b71000000000000000000000000000000000000000000000000000000005f52601160045260245ffd5b6001815b600184111561075157808504811115610735576107356106e9565b600184161561074357908102905b60019390931c92800261071a565b935093915050565b5f8261076757506001610833565b8161077357505f610833565b81600181146107895760028114610793576107af565b6001915050610833565b60ff8411156107a4576107a46106e9565b50506001821b610833565b5060208310610133831016604e8410600b84101617156107d2575081810a610833565b6107fd7fffffffffffffffffffffffffffffffffffffffffffffffffffffffffffffffff8484610716565b807fffffffffffffffffffffffffffffffffffffffffffffffffffffffffffffffff0482111561082f5761082f6106e9565b0290505b92915050565b5f61011260ff841683610759565b5f60208284031215610857575f5ffd5b5051919050565b7f4e487b71000000000000000000000000000000000000000000000000000000005f52603260045260245ffdfea164736f6c634300081c000a"
      ],
      "transaction": {
        "from": "0x168910ea470113a07ec777769e76d9c8c80a402f",
        "to": "0x4b38341b1126f45614b26319787ca98aec1b6f57",
        "gas": "0x282e0a",
        "value": "0x0",
        "input": "0xcdcb760ab425cc0ddd1615edea21608182b3788272882a97c8cb598d925b7b881e49f8fd000000000000000000000000000000000000000000000000000000000000004000000000000000000000000000000000000000000000000000000000000008b46080604052348015600e575f5ffd5b506108988061001c5f395ff3fe608060405234801561000f575f5ffd5b506004361061004a575f3560e01c80632e4874201461004e5780633a10b4b3146100745780633f55350f146100945780638e64c0c7146100e7575b5f5ffd5b61006161005c36600461039f565b610107565b6040519081526020015b60405180910390f35b6100876100823660046104c4565b610119565b60405161006b9190610529565b6100da6100a236600461056b565b5060408051808201909152600381527f3078300000000000000000000000000000000000000000000000000000000000602082015290565b60405161006b91906105d2565b6100fa6100f53660046105e4565b610125565b60405161006b9190610616565b5f610112838361017b565b9392505050565b606061011282846102ae565b6060815167ffffffffffffffff811115610141576101416103d6565b60405190808252806020026020018201604052801561017457816020015b606081526020019060019003908161015f5790505b5092915050565b5f5f8373ffffffffffffffffffffffffffffffffffffffff1663a40bee506040518163ffffffff1660e01b8152600401606060405180830381865afa1580156101c6573d5f5f3e3d5ffd5b505050506040513d601f19601f820116820180604052508101906101ea9190610697565b9250505073ffffffffffffffffffffffffffffffffffffffff841663cbe52ae38461021684600a610839565b6040517fffffffff0000000000000000000000000000000000000000000000000000000060e085901b16815273ffffffffffffffffffffffffffffffffffffffff90921660048301526024820152604401602060405180830381865afa158015610282573d5f5f3e3d5ffd5b505050506040513d601f19601f820116820180604052508101906102a69190610847565b949350505050565b81516060908067ffffffffffffffff8111156102cc576102cc6103d6565b6040519080825280602002602001820160405280156102f5578160200160208202803683370190505b5091505f5b818110156103635761033e8582815181106103175761031761085e565b60200260200101518583815181106103315761033161085e565b602002602001015161017b565b8382815181106103505761035061085e565b60209081029190910101526001016102fa565b505092915050565b73ffffffffffffffffffffffffffffffffffffffff8116811461038c575f5ffd5b50565b803561039a8161036b565b919050565b5f5f604083850312156103b0575f5ffd5b82356103bb8161036b565b915060208301356103cb8161036b565b809150509250929050565b7f4e487b71000000000000000000000000000000000000000000000000000000005f52604160045260245ffd5b5f82601f830112610412575f5ffd5b813567ffffffffffffffff81111561042c5761042c6103d6565b8060051b6040517fffffffffffffffffffffffffffffffffffffffffffffffffffffffffffffffe0603f830116810181811067ffffffffffffffff82111715610477576104776103d6565b604052918252602081850181019290810186841115610494575f5ffd5b6020860192505b838310156104ba576104ac8361038f565b81526020928301920161049b565b5095945050505050565b5f5f604083850312156104d5575f5ffd5b823567ffffffffffffffff8111156104eb575f5ffd5b6104f785828601610403565b925050602083013567ffffffffffffffff811115610513575f5ffd5b61051f85828601610403565b9150509250929050565b602080825282518282018190525f918401906040840190835b81811015610560578351835260209384019390920191600101610542565b509095945050505050565b5f6020828403121561057b575f5ffd5b81356101128161036b565b5f81518084528060208401602086015e5f6020828601015260207fffffffffffffffffffffffffffffffffffffffffffffffffffffffffffffffe0601f83011685010191505092915050565b602081525f6101126020830184610586565b5f602082840312156105f4575f5ffd5b813567ffffffffffffffff81111561060a575f5ffd5b6102a684828501610403565b5f602082016020835280845180835260408501915060408160051b8601019250602086015f5b8281101561068b577fffffffffffffffffffffffffffffffffffffffffffffffffffffffffffffffc0878603018452610676858351610586565b9450602093840193919091019060010161063c565b50929695505050505050565b5f5f5f606084860312156106a9575f5ffd5b8351600281106106b7575f5ffd5b60208501519093506106c88161036b565b604085015190925060ff811681146106de575f5ffd5b809150509250925092565b7f4e487b71000000000000000000000000000000000000000000000000000000005f52601160045260245ffd5b6001815b600184111561075157808504811115610735576107356106e9565b600184161561074357908102905b60019390931c92800261071a565b935093915050565b5f8261076757506001610833565b8161077357505f610833565b81600181146107895760028114610793576107af565b6001915050610833565b60ff8411156107a4576107a46106e9565b50506001821b610833565b5060208310610133831016604e8410600b84101617156107d2575081810a610833565b6107fd7fffffffffffffffffffffffffffffffffffffffffffffffffffffffffffffffff8484610716565b807fffffffffffffffffffffffffffffffffffffffffffffffffffffffffffffffff0482111561082f5761082f6106e9565b0290505b92915050565b5f61011260ff841683610759565b5f60208284031215610857575f5ffd5b5051919050565b7f4e487b71000000000000000000000000000000000000000000000000000000005f52603260045260245ffdfea164736f6c634300081c000a000000000000000000000000",
        "nonce": "0x1b",
        "chainId": "0xa4b1"
      },
      "additionalContracts": [
        {
          "transactionType": "CREATE2",
          "address": "0xb43328808b51a265d76669763b4ec542b39b7617",
          "initCode": "0x67363d3d37363d34f03d5260086018f3"
        },
        {
          "transactionType": "CREATE",
          "address": "0xe847aff25e5ccf65e631ae0f3c97a19065ab39ae",
          "initCode": "0x6080604052348015600e575f5ffd5b506108988061001c5f395ff3fe608060405234801561000f575f5ffd5b506004361061004a575f3560e01c80632e4874201461004e5780633a10b4b3146100745780633f55350f146100945780638e64c0c7146100e7575b5f5ffd5b61006161005c36600461039f565b610107565b6040519081526020015b60405180910390f35b6100876100823660046104c4565b610119565b60405161006b9190610529565b6100da6100a236600461056b565b5060408051808201909152600381527f3078300000000000000000000000000000000000000000000000000000000000602082015290565b60405161006b91906105d2565b6100fa6100f53660046105e4565b610125565b60405161006b9190610616565b5f610112838361017b565b9392505050565b606061011282846102ae565b6060815167ffffffffffffffff811115610141576101416103d6565b60405190808252806020026020018201604052801561017457816020015b606081526020019060019003908161015f5790505b5092915050565b5f5f8373ffffffffffffffffffffffffffffffffffffffff1663a40bee506040518163ffffffff1660e01b8152600401606060405180830381865afa1580156101c6573d5f5f3e3d5ffd5b505050506040513d601f19601f820116820180604052508101906101ea9190610697565b9250505073ffffffffffffffffffffffffffffffffffffffff841663cbe52ae38461021684600a610839565b6040517fffffffff0000000000000000000000000000000000000000000000000000000060e085901b16815273ffffffffffffffffffffffffffffffffffffffff90921660048301526024820152604401602060405180830381865afa158015610282573d5f5f3e3d5ffd5b505050506040513d601f19601f820116820180604052508101906102a69190610847565b949350505050565b81516060908067ffffffffffffffff8111156102cc576102cc6103d6565b6040519080825280602002602001820160405280156102f5578160200160208202803683370190505b5091505f5b818110156103635761033e8582815181106103175761031761085e565b60200260200101518583815181106103315761033161085e565b602002602001015161017b565b8382815181106103505761035061085e565b60209081029190910101526001016102fa565b505092915050565b73ffffffffffffffffffffffffffffffffffffffff8116811461038c575f5ffd5b50565b803561039a8161036b565b919050565b5f5f604083850312156103b0575f5ffd5b82356103bb8161036b565b915060208301356103cb8161036b565b809150509250929050565b7f4e487b71000000000000000000000000000000000000000000000000000000005f52604160045260245ffd5b5f82601f830112610412575f5ffd5b813567ffffffffffffffff81111561042c5761042c6103d6565b8060051b6040517fffffffffffffffffffffffffffffffffffffffffffffffffffffffffffffffe0603f830116810181811067ffffffffffffffff82111715610477576104776103d6565b604052918252602081850181019290810186841115610494575f5ffd5b6020860192505b838310156104ba576104ac8361038f565b81526020928301920161049b565b5095945050505050565b5f5f604083850312156104d5575f5ffd5b823567ffffffffffffffff8111156104eb575f5ffd5b6104f785828601610403565b925050602083013567ffffffffffffffff811115610513575f5ffd5b61051f85828601610403565b9150509250929050565b602080825282518282018190525f918401906040840190835b81811015610560578351835260209384019390920191600101610542565b509095945050505050565b5f6020828403121561057b575f5ffd5b81356101128161036b565b5f81518084528060208401602086015e5f6020828601015260207fffffffffffffffffffffffffffffffffffffffffffffffffffffffffffffffe0601f83011685010191505092915050565b602081525f6101126020830184610586565b5f602082840312156105f4575f5ffd5b813567ffffffffffffffff81111561060a575f5ffd5b6102a684828501610403565b5f602082016020835280845180835260408501915060408160051b8601019250602086015f5b8281101561068b577fffffffffffffffffffffffffffffffffffffffffffffffffffffffffffffffc0878603018452610676858351610586565b9450602093840193919091019060010161063c565b50929695505050505050565b5f5f5f606084860312156106a9575f5ffd5b8351600281106106b7575f5ffd5b60208501519093506106c88161036b565b604085015190925060ff811681146106de575f5ffd5b809150509250925092565b7f4e487b71000000000000000000000000000000000000000000000000000000005f52601160045260245ffd5b6001815b600184111561075157808504811115610735576107356106e9565b600184161561074357908102905b60019390931c92800261071a565b935093915050565b5f8261076757506001610833565b8161077357505f610833565b81600181146107895760028114610793576107af565b6001915050610833565b60ff8411156107a4576107a46106e9565b50506001821b610833565b5060208310610133831016604e8410600b84101617156107d2575081810a610833565b6107fd7fffffffffffffffffffffffffffffffffffffffffffffffffffffffffffffffff8484610716565b807fffffffffffffffffffffffffffffffffffffffffffffffffffffffffffffffff0482111561082f5761082f6106e9565b0290505b92915050565b5f61011260ff841683610759565b5f60208284031215610857575f5ffd5b5051919050565b7f4e487b71000000000000000000000000000000000000000000000000000000005f52603260045260245ffdfea164736f6c634300081c000a"
        }
      ],
      "isFixedGasLimit": false
    },
    {
      "hash": null,
      "transactionType": "CALL",
      "contractName": null,
      "contractAddress": "0xdf89c91120f89765402b6ffd926f03c55989dabc",
      "function": "setRole(address,bytes32,bool)",
      "arguments": [
        "0xE400b3371E03DD5328a89F8e4029467D20B35b4b",
        "0x6efc14bac9e95442c8cb65b056828038932d596721eaf75f2be81611882d6d77",
        "true"
      ],
      "transaction": {
        "from": "0x168910ea470113a07ec777769e76d9c8c80a402f",
        "to": "0xdf89c91120f89765402b6ffd926f03c55989dabc",
        "gas": "0x5a217",
        "value": "0x0",
        "input": "0xb2b7551a000000000000000000000000e400b3371e03dd5328a89f8e4029467d20b35b4b6efc14bac9e95442c8cb65b056828038932d596721eaf75f2be81611882d6d770000000000000000000000000000000000000000000000000000000000000001",
        "nonce": "0x1c",
        "chainId": "0xa4b1"
      },
      "additionalContracts": [],
      "isFixedGasLimit": false
    },
    {
      "hash": null,
      "transactionType": "CALL",
      "contractName": null,
      "contractAddress": "0xdf89c91120f89765402b6ffd926f03c55989dabc",
      "function": "setRole(address,bytes32,bool)",
      "arguments": [
        "0x168910Ea470113A07Ec777769E76D9C8C80A402f",
        "0xa0261fc01b3806346d4e238ec30feb1427430cebd0ef13d9e615c61f40456226",
        "true"
      ],
      "transaction": {
        "from": "0x168910ea470113a07ec777769e76d9c8c80a402f",
        "to": "0xdf89c91120f89765402b6ffd926f03c55989dabc",
        "gas": "0x5a226",
        "value": "0x0",
        "input": "0xb2b7551a000000000000000000000000168910ea470113a07ec777769e76d9c8c80a402fa0261fc01b3806346d4e238ec30feb1427430cebd0ef13d9e615c61f404562260000000000000000000000000000000000000000000000000000000000000001",
        "nonce": "0x1d",
        "chainId": "0xa4b1"
      },
      "additionalContracts": [],
      "isFixedGasLimit": false
    },
    {
      "hash": null,
      "transactionType": "CALL",
      "contractName": null,
      "contractAddress": "0xdf89c91120f89765402b6ffd926f03c55989dabc",
      "function": "setRole(address,bytes32,bool)",
      "arguments": [
        "0x168910Ea470113A07Ec777769E76D9C8C80A402f",
        "0x33ddaa26bf0248c30259e405341632224e33b14f8cf840b789e3f901f0400a84",
        "true"
      ],
      "transaction": {
        "from": "0x168910ea470113a07ec777769e76d9c8c80a402f",
        "to": "0xdf89c91120f89765402b6ffd926f03c55989dabc",
        "gas": "0x5a226",
        "value": "0x0",
        "input": "0xb2b7551a000000000000000000000000168910ea470113a07ec777769e76d9c8c80a402f33ddaa26bf0248c30259e405341632224e33b14f8cf840b789e3f901f0400a840000000000000000000000000000000000000000000000000000000000000001",
        "nonce": "0x1e",
        "chainId": "0xa4b1"
      },
      "additionalContracts": [],
      "isFixedGasLimit": false
    },
    {
      "hash": null,
      "transactionType": "CALL",
      "contractName": null,
      "contractAddress": "0xdf89c91120f89765402b6ffd926f03c55989dabc",
      "function": "setRole(address,bytes32,bool)",
      "arguments": [
        "0x168910Ea470113A07Ec777769E76D9C8C80A402f",
        "0x8777bfc8235b5c72bc1c9e2fccbbaca7e82e74ce0b9dfdbf90a9f201631dc20b",
        "true"
      ],
      "transaction": {
        "from": "0x168910ea470113a07ec777769e76d9c8c80a402f",
        "to": "0xdf89c91120f89765402b6ffd926f03c55989dabc",
        "gas": "0x5a226",
        "value": "0x0",
        "input": "0xb2b7551a000000000000000000000000168910ea470113a07ec777769e76d9c8c80a402f8777bfc8235b5c72bc1c9e2fccbbaca7e82e74ce0b9dfdbf90a9f201631dc20b0000000000000000000000000000000000000000000000000000000000000001",
        "nonce": "0x1f",
        "chainId": "0xa4b1"
      },
      "additionalContracts": [],
      "isFixedGasLimit": false
    },
    {
      "hash": null,
      "transactionType": "CALL",
      "contractName": null,
      "contractAddress": "0xdf89c91120f89765402b6ffd926f03c55989dabc",
      "function": "setRole(address,bytes32,bool)",
      "arguments": [
        "0x168910Ea470113A07Ec777769E76D9C8C80A402f",
        "0x9d5309288dc79caa492206604883a919b8d95319ec7e7acbfd4f00ab2704ea02",
        "true"
      ],
      "transaction": {
        "from": "0x168910ea470113a07ec777769e76d9c8c80a402f",
        "to": "0xdf89c91120f89765402b6ffd926f03c55989dabc",
        "gas": "0x5a217",
        "value": "0x0",
        "input": "0xb2b7551a000000000000000000000000168910ea470113a07ec777769e76d9c8c80a402f9d5309288dc79caa492206604883a919b8d95319ec7e7acbfd4f00ab2704ea020000000000000000000000000000000000000000000000000000000000000001",
        "nonce": "0x20",
        "chainId": "0xa4b1"
      },
      "additionalContracts": [],
      "isFixedGasLimit": false
    },
    {
      "hash": null,
      "transactionType": "CALL",
      "contractName": null,
      "contractAddress": "0xce78ac97d73b0beab15df609235d9b0a34099704",
      "function": "setAddress(bytes32,address)",
      "arguments": [
        "0x58bc951b53ca0f2887abc4a79771327c118368210f6479d7837d82c7be47497d",
        "0xdF89C91120f89765402b6fFD926F03C55989dabC"
      ],
      "transaction": {
        "from": "0x168910ea470113a07ec777769e76d9c8c80a402f",
        "to": "0xce78ac97d73b0beab15df609235d9b0a34099704",
        "gas": "0x5030b",
        "value": "0x0",
        "input": "0xca446dd958bc951b53ca0f2887abc4a79771327c118368210f6479d7837d82c7be47497d000000000000000000000000df89c91120f89765402b6ffd926f03c55989dabc",
        "nonce": "0x21",
        "chainId": "0xa4b1"
      },
      "additionalContracts": [],
      "isFixedGasLimit": false
    },
    {
      "hash": null,
      "transactionType": "CALL",
      "contractName": null,
      "contractAddress": "0xce78ac97d73b0beab15df609235d9b0a34099704",
      "function": "setAddress(bytes32,address)",
      "arguments": [
        "0xf8b8215693a94f1ddc7494cb011167e2f1349eca37e8cda4bd1bb939c9710dda",
        "0x0ff970F251E07324Bd3F9566E9Dd36d239737Ee6"
      ],
      "transaction": {
        "from": "0x168910ea470113a07ec777769e76d9c8c80a402f",
        "to": "0xce78ac97d73b0beab15df609235d9b0a34099704",
        "gas": "0x5030b",
        "value": "0x0",
        "input": "0xca446dd9f8b8215693a94f1ddc7494cb011167e2f1349eca37e8cda4bd1bb939c9710dda0000000000000000000000000ff970f251e07324bd3f9566e9dd36d239737ee6",
        "nonce": "0x22",
        "chainId": "0xa4b1"
      },
      "additionalContracts": [],
      "isFixedGasLimit": false
    },
    {
      "hash": null,
      "transactionType": "CALL",
      "contractName": null,
      "contractAddress": "0xce78ac97d73b0beab15df609235d9b0a34099704",
      "function": "setAddress(bytes32,address)",
      "arguments": [
        "0xbee2d1489205471b5323c3ac844d61024c19870366ce42199784e968174a1dee",
        "0x040B9E6021cD67dBFe1a766E3d5ad9d786aEdE9D"
      ],
      "transaction": {
        "from": "0x168910ea470113a07ec777769e76d9c8c80a402f",
        "to": "0xce78ac97d73b0beab15df609235d9b0a34099704",
        "gas": "0x5030b",
        "value": "0x0",
        "input": "0xca446dd9bee2d1489205471b5323c3ac844d61024c19870366ce42199784e968174a1dee000000000000000000000000040b9e6021cd67dbfe1a766e3d5ad9d786aede9d",
        "nonce": "0x23",
        "chainId": "0xa4b1"
      },
      "additionalContracts": [],
      "isFixedGasLimit": false
    },
    {
      "hash": null,
      "transactionType": "CALL",
      "contractName": null,
      "contractAddress": "0xce78ac97d73b0beab15df609235d9b0a34099704",
      "function": "setAddress(bytes32,address)",
      "arguments": [
        "0xac0eac8a49eb052761e4560ee21024ac7cdac202ce456e4184fa3f271b92dd9b",
        "0xE400b3371E03DD5328a89F8e4029467D20B35b4b"
      ],
      "transaction": {
        "from": "0x168910ea470113a07ec777769e76d9c8c80a402f",
        "to": "0xce78ac97d73b0beab15df609235d9b0a34099704",
        "gas": "0x502fa",
        "value": "0x0",
        "input": "0xca446dd9ac0eac8a49eb052761e4560ee21024ac7cdac202ce456e4184fa3f271b92dd9b000000000000000000000000e400b3371e03dd5328a89f8e4029467d20b35b4b",
        "nonce": "0x24",
        "chainId": "0xa4b1"
      },
      "additionalContracts": [],
      "isFixedGasLimit": false
    },
    {
      "hash": null,
      "transactionType": "CALL",
      "contractName": null,
      "contractAddress": "0xce78ac97d73b0beab15df609235d9b0a34099704",
      "function": "setAddress(bytes32,address)",
      "arguments": [
        "0x84cbab1060d373a6ca08ceeea30bcdc515b48bb60e7c770fd4f6c4ad3e898730",
        "0x6DD923d3A002ad91f28191a748EAdFBF4eA66fB0"
      ],
      "transaction": {
        "from": "0x168910ea470113a07ec777769e76d9c8c80a402f",
        "to": "0xce78ac97d73b0beab15df609235d9b0a34099704",
        "gas": "0x5030b",
        "value": "0x0",
        "input": "0xca446dd984cbab1060d373a6ca08ceeea30bcdc515b48bb60e7c770fd4f6c4ad3e8987300000000000000000000000006dd923d3a002ad91f28191a748eadfbf4ea66fb0",
        "nonce": "0x25",
        "chainId": "0xa4b1"
      },
      "additionalContracts": [],
      "isFixedGasLimit": false
    },
    {
      "hash": null,
      "transactionType": "CALL",
      "contractName": null,
      "contractAddress": "0xce78ac97d73b0beab15df609235d9b0a34099704",
      "function": "setAddress(bytes32,address)",
      "arguments": [
        "0x815e5d074434192876794d23bc2bb7251ebceb995a2b81cf27a85bccfdbeece3",
        "0x168910Ea470113A07Ec777769E76D9C8C80A402f"
      ],
      "transaction": {
        "from": "0x168910ea470113a07ec777769e76d9c8c80a402f",
        "to": "0xce78ac97d73b0beab15df609235d9b0a34099704",
        "gas": "0x5030b",
        "value": "0x0",
        "input": "0xca446dd9815e5d074434192876794d23bc2bb7251ebceb995a2b81cf27a85bccfdbeece3000000000000000000000000168910ea470113a07ec777769e76d9c8c80a402f",
        "nonce": "0x26",
        "chainId": "0xa4b1"
      },
      "additionalContracts": [],
      "isFixedGasLimit": false
    }
  ],
  "receipts": [],
  "libraries": [],
  "pending": [],
  "returns": {},
  "timestamp": 1734522806,
  "chain": 42161,
  "commit": "41b2721"
}