{
  "transactions": [
    {
      "hash": "0x8ce24ba47bb628b3451b5ea0dc4950d86f45e4c7cbff85b5a2ca9bee0ec262e5",
      "transactionType": "CALL",
      "contractName": null,
      "contractAddress": "0x4b38341b1126f45614b26319787ca98aec1b6f57",
      "function": "deploy(bytes32,bytes)",
      "arguments": [
        "0x1fc0bc265bded02cbe2d6ff05957d062e20a6c92bc9a61d15593e9eea89d6f06",
        "0x6080604052348015600e575f5ffd5b506104d58061001c5f395ff3fe608060405234801561000f575f5ffd5b506004361061009f575f3560e01c80638a91b0e311610072578063d60b347f11610058578063d60b347f14610164578063ecd0596114610188578063f551e2ee1461019c575f5ffd5b80638a91b0e31461013d5780639700320314610151575f5ffd5b806306fdde03146100a35780633c6bb436146100ee57806354fd4d50146101045780636d61fe701461013d575b5f5ffd5b60408051808201909152601381527f4d6f636b56616c696461746f724d6f64756c650000000000000000000000000060208201525b6040516100e5919061029b565b60405180910390f35b6100f65f5481565b6040519081526020016100e5565b60408051808201909152600581527f302e302e3100000000000000000000000000000000000000000000000000000060208201526100d8565b61014f61014b366004610333565b5050565b005b6100f661015f366004610372565b610204565b6101786101723660046103e1565b50600190565b60405190151581526020016100e5565b6101786101963660046103fa565b60011490565b6101d36101aa366004610411565b7f1626ba7e00000000000000000000000000000000000000000000000000000000949350505050565b6040517fffffffff0000000000000000000000000000000000000000000000000000000090911681526020016100e5565b670de0b6b3a76400005f90815561023561022160208501856103e1565b83610230610100870187610467565b61023c565b9392505050565b5f6102485f5f5f610251565b95945050505050565b5f61025d848484610265565b949350505050565b5f60d08265ffffffffffff16901b60a08465ffffffffffff16901b8561028b575f61028e565b60015b60ff161717949350505050565b602081525f82518060208401528060208501604085015e5f6040828501015260407fffffffffffffffffffffffffffffffffffffffffffffffffffffffffffffffe0601f83011684010191505092915050565b5f5f83601f8401126102fe575f5ffd5b50813567ffffffffffffffff811115610315575f5ffd5b60208301915083602082850101111561032c575f5ffd5b9250929050565b5f5f60208385031215610344575f5ffd5b823567ffffffffffffffff81111561035a575f5ffd5b610366858286016102ee565b90969095509350505050565b5f5f60408385031215610383575f5ffd5b823567ffffffffffffffff811115610399575f5ffd5b830161012081860312156103ab575f5ffd5b946020939093013593505050565b803573ffffffffffffffffffffffffffffffffffffffff811681146103dc575f5ffd5b919050565b5f602082840312156103f1575f5ffd5b610235826103b9565b5f6020828403121561040a575f5ffd5b5035919050565b5f5f5f5f60608587031215610424575f5ffd5b61042d856103b9565b935060208501359250604085013567ffffffffffffffff81111561044f575f5ffd5b61045b878288016102ee565b95989497509550505050565b5f5f83357fffffffffffffffffffffffffffffffffffffffffffffffffffffffffffffffe184360301811261049a575f5ffd5b83018035915067ffffffffffffffff8211156104b4575f5ffd5b60200191503681900382131561032c575f5ffdfea164736f6c634300081c000a"
      ],
      "transaction": {
        "from": "0x76e9b0063546d97a9c2fdbc9682c5fa347b253ba",
        "to": "0x4b38341b1126f45614b26319787ca98aec1b6f57",
        "gas": "0x7efb2",
        "value": "0x0",
        "input": "0xcdcb760a1fc0bc265bded02cbe2d6ff05957d062e20a6c92bc9a61d15593e9eea89d6f06000000000000000000000000000000000000000000000000000000000000004000000000000000000000000000000000000000000000000000000000000004f16080604052348015600e575f5ffd5b506104d58061001c5f395ff3fe608060405234801561000f575f5ffd5b506004361061009f575f3560e01c80638a91b0e311610072578063d60b347f11610058578063d60b347f14610164578063ecd0596114610188578063f551e2ee1461019c575f5ffd5b80638a91b0e31461013d5780639700320314610151575f5ffd5b806306fdde03146100a35780633c6bb436146100ee57806354fd4d50146101045780636d61fe701461013d575b5f5ffd5b60408051808201909152601381527f4d6f636b56616c696461746f724d6f64756c650000000000000000000000000060208201525b6040516100e5919061029b565b60405180910390f35b6100f65f5481565b6040519081526020016100e5565b60408051808201909152600581527f302e302e3100000000000000000000000000000000000000000000000000000060208201526100d8565b61014f61014b366004610333565b5050565b005b6100f661015f366004610372565b610204565b6101786101723660046103e1565b50600190565b60405190151581526020016100e5565b6101786101963660046103fa565b60011490565b6101d36101aa366004610411565b7f1626ba7e00000000000000000000000000000000000000000000000000000000949350505050565b6040517fffffffff0000000000000000000000000000000000000000000000000000000090911681526020016100e5565b670de0b6b3a76400005f90815561023561022160208501856103e1565b83610230610100870187610467565b61023c565b9392505050565b5f6102485f5f5f610251565b95945050505050565b5f61025d848484610265565b949350505050565b5f60d08265ffffffffffff16901b60a08465ffffffffffff16901b8561028b575f61028e565b60015b60ff161717949350505050565b602081525f82518060208401528060208501604085015e5f6040828501015260407fffffffffffffffffffffffffffffffffffffffffffffffffffffffffffffffe0601f83011684010191505092915050565b5f5f83601f8401126102fe575f5ffd5b50813567ffffffffffffffff811115610315575f5ffd5b60208301915083602082850101111561032c575f5ffd5b9250929050565b5f5f60208385031215610344575f5ffd5b823567ffffffffffffffff81111561035a575f5ffd5b610366858286016102ee565b90969095509350505050565b5f5f60408385031215610383575f5ffd5b823567ffffffffffffffff811115610399575f5ffd5b830161012081860312156103ab575f5ffd5b946020939093013593505050565b803573ffffffffffffffffffffffffffffffffffffffff811681146103dc575f5ffd5b919050565b5f602082840312156103f1575f5ffd5b610235826103b9565b5f6020828403121561040a575f5ffd5b5035919050565b5f5f5f5f60608587031215610424575f5ffd5b61042d856103b9565b935060208501359250604085013567ffffffffffffffff81111561044f575f5ffd5b61045b878288016102ee565b95989497509550505050565b5f5f83357fffffffffffffffffffffffffffffffffffffffffffffffffffffffffffffffe184360301811261049a575f5ffd5b83018035915067ffffffffffffffff8211156104b4575f5ffd5b60200191503681900382131561032c575f5ffdfea164736f6c634300081c000a000000000000000000000000000000",
        "nonce": "0x43",
        "chainId": "0x1"
      },
      "additionalContracts": [
        {
          "transactionType": "CREATE2",
          "address": "0x3c7fe041285092541d98f5ef9cb6f8558b7b2e0f",
          "initCode": "0x67363d3d37363d34f03d5260086018f3"
        },
        {
          "transactionType": "CREATE",
          "address": "0xd329913016caee2fa622feac1eb4e012bdff279b",
          "initCode": "0x6080604052348015600e575f5ffd5b506104d58061001c5f395ff3fe608060405234801561000f575f5ffd5b506004361061009f575f3560e01c80638a91b0e311610072578063d60b347f11610058578063d60b347f14610164578063ecd0596114610188578063f551e2ee1461019c575f5ffd5b80638a91b0e31461013d5780639700320314610151575f5ffd5b806306fdde03146100a35780633c6bb436146100ee57806354fd4d50146101045780636d61fe701461013d575b5f5ffd5b60408051808201909152601381527f4d6f636b56616c696461746f724d6f64756c650000000000000000000000000060208201525b6040516100e5919061029b565b60405180910390f35b6100f65f5481565b6040519081526020016100e5565b60408051808201909152600581527f302e302e3100000000000000000000000000000000000000000000000000000060208201526100d8565b61014f61014b366004610333565b5050565b005b6100f661015f366004610372565b610204565b6101786101723660046103e1565b50600190565b60405190151581526020016100e5565b6101786101963660046103fa565b60011490565b6101d36101aa366004610411565b7f1626ba7e00000000000000000000000000000000000000000000000000000000949350505050565b6040517fffffffff0000000000000000000000000000000000000000000000000000000090911681526020016100e5565b670de0b6b3a76400005f90815561023561022160208501856103e1565b83610230610100870187610467565b61023c565b9392505050565b5f6102485f5f5f610251565b95945050505050565b5f61025d848484610265565b949350505050565b5f60d08265ffffffffffff16901b60a08465ffffffffffff16901b8561028b575f61028e565b60015b60ff161717949350505050565b602081525f82518060208401528060208501604085015e5f6040828501015260407fffffffffffffffffffffffffffffffffffffffffffffffffffffffffffffffe0601f83011684010191505092915050565b5f5f83601f8401126102fe575f5ffd5b50813567ffffffffffffffff811115610315575f5ffd5b60208301915083602082850101111561032c575f5ffd5b9250929050565b5f5f60208385031215610344575f5ffd5b823567ffffffffffffffff81111561035a575f5ffd5b610366858286016102ee565b90969095509350505050565b5f5f60408385031215610383575f5ffd5b823567ffffffffffffffff811115610399575f5ffd5b830161012081860312156103ab575f5ffd5b946020939093013593505050565b803573ffffffffffffffffffffffffffffffffffffffff811681146103dc575f5ffd5b919050565b5f602082840312156103f1575f5ffd5b610235826103b9565b5f6020828403121561040a575f5ffd5b5035919050565b5f5f5f5f60608587031215610424575f5ffd5b61042d856103b9565b935060208501359250604085013567ffffffffffffffff81111561044f575f5ffd5b61045b878288016102ee565b95989497509550505050565b5f5f83357fffffffffffffffffffffffffffffffffffffffffffffffffffffffffffffffe184360301811261049a575f5ffd5b83018035915067ffffffffffffffff8211156104b4575f5ffd5b60200191503681900382131561032c575f5ffdfea164736f6c634300081c000a"
        }
      ],
      "isFixedGasLimit": false
    }
  ],
  "receipts": [
    {
      "status": "0x1",
      "cumulativeGasUsed": "0x56d32",
      "logs": [],
      "logsBloom": "0x00000000000000000000000000000000000000000000000000000000000000000000000000000000000000000000000000000000000000000000000000000000000000000000000000000000000000000000000000000000000000000000000000000000000000000000000000000000000000000000000000000000000000000000000000000000000000000000000000000000000000000000000000000000000000000000000000000000000000000000000000000000000000000000000000000000000000000000000000000000000000000000000000000000000000000000000000000000000000000000000000000000000000000000000000000000",
      "type": "0x2",
      "transactionHash": "0x8ce24ba47bb628b3451b5ea0dc4950d86f45e4c7cbff85b5a2ca9bee0ec262e5",
      "transactionIndex": "0x0",
      "blockHash": "0x91cd469e36ce7f1c2531de676e80749ac95bae4ebd9ccf6385ad79baa95be8da",
      "blockNumber": "0x1494968",
      "gasUsed": "0x56d32",
      "effectiveGasPrice": "0x3",
      "blobGasUsed": "0x0",
      "from": "0x76e9b0063546d97a9c2fdbc9682c5fa347b253ba",
      "to": "0x4b38341b1126f45614b26319787ca98aec1b6f57",
      "contractAddress": null
    }
  ],
  "libraries": [],
  "pending": [],
  "returns": {},
  "timestamp": 1736435728,
  "chain": 1,
  "commit": "27db846"
}